S0170000696C65645F626C696E6B795F636D372E7372656321
S315300004004643464200040156000000000103030043
S3153000041000000000000000000000000000000000A6
S315300004200000000000000000000000000000000096
S315300004300000000000000000000000000000000086
S31530000440100000000104050000000000000000005C
S315300004500000000400000000000000000000000062
S315300004600000000000000000000000000000000056
S315300004700000000000000000000000000000000046
S31530000480EB04180A063204260000000000000000C3
S3153000049005040424000000000000000000000000F5
S315300004A00000000000000000000000000000000016
S315300004B006040000000000000000000000000000FC
S315300004C000000000000000000000000000000000F6
S315300004D02104200800000000000000000000000099
S315300004E000000000000000000000000000000000D6
S315300004F000000000000000000000000000000000C6
S31530000500D8041808000000000000000000000000B9
S315300005101204200804200000000000000000000043
S315300005200000000000000000000000000000000095
S315300005306004000000000000000000000000000021
S31530000540C004012000000000000000000000000090
S315300005500000000000000000000000000000000065
S315300005600000000000000000000000000000000055
S315300005700000000000000000000000000000000045
S315300005800000000000000000000000000000000035
S315300005900000000000000000000000000000000025
S315300005A00000000000000000000000000000000015
S315300005B00000000000000000000000000000000005
S315300005C000010000001000000100000000000000E3
S315300005D000000100000000000000000000000000E4
S315300005E000000000000000000000000000000000D5
S315300005F000000000000000000000000000000000C5
S31530001000D100204145E6003000000000000000001D
S3153000101020100030001000300000000000000000FA
S31530001020000000300000000100000000FFFFFFFF5D
S3153000A0000000042045E600300FBA003017BA0030A1
S3153000A010BFBA00309BBE00302BBF003000000000BE
S3153000A02000000000000000000000000063BF0030A8
S3153000A030DDE600300000000007E70030F1DE0030DA
S3153000A040F9E8003001E9003009E9003011E9003063
S3153000A05019E9003021E9003029E9003031E90030D2
S3153000A06039E9003041E9003049E9003051E9003042
S3153000A07059E9003061E9003069E9003071E90030B2
S3153000A08079E900307DEB00307DEB00307DEB003040
S3153000A09081E9003089E9003091E9003099E90030F2
S3153000A0A0A1E90030A9E90030B1E90030B9E9003062
S3153000A0B0C1E90030C9E90030D1E90030D9E90030D2
S3153000A0C0E1E90030E9E90030F1E90030F9E9003042
S3153000A0D001EA003009EA003011EA003019EA0030AE
S3153000A0E021EA003029EA003031EA003039EA00301E
S3153000A0F041EA003049EA003051EA003059EA00308E
S3153000A10061EA003069EA00307DEB00307DEB0030EB
S3153000A1107DEB00307DEB00307DEB00307DEB0030A9
S3153000A1207DEB00307DEB003071EA003079EA0030AB
S3153000A1307DEB00307DEB00307DEB00307DEB003089
S3153000A1407DEB00307DEB00307DEB00307DEB003079
S3153000A1507DEB00307DEB00307DEB00307DEB003069
S3153000A1607DEB00307DEB00307DEB003081EA003056
S3153000A17089EA003091EA003099EA0030A1EA0030ED
S3153000A180A9EA0030B1EA0030B9EA00307DEB0030A0
S3153000A1907DEB00307DEB00307DEB00307DEB003029
S3153000A1A07DEB00307DEB00307DEB00307DEB003019
S3153000A1B07DEB00307DEB00307DEB00307DEB003009
S3153000A1C07DEB0030C1EA00307DEB00307DEB0030B6
S3153000A1D07DEB00307DEB00307DEB00307DEB0030E9
S3153000A1E07DEB00307DEB00307DEB00307DEB0030D9
S3153000A1F07DEB00307DEB0030C9EA0030D1EA00302B
S3153000A2007DEB00307DEB00307DEB00307DEB0030B8
S3153000A2107DEB00307DEB00307DEB00307DEB0030A8
S3153000A2207DEB00307DEB00307DEB00307DEB003098
S3153000A2307DEB00307DEB00307DEB00307DEB003088
S3153000A2407DEB00307DEB0030D9EA0030E1EA0030BA
S3153000A2507DEB0030E9EA0030F1EA00307DEB00308A
S3153000A2607DEB0030F9EA003001EB003009EB0030CD
S3153000A27011EB003019EB003021EB00307DEB003074
S3153000A2807DEB00307DEB00307DEB00307DEB003038
S3153000A2907DEB00307DEB00307DEB00307DEB003028
S3153000A2A07DEB00307DEB00307DEB00307DEB003018
S3153000A2B07DEB00307DEB00307DEB00307DEB003008
S3153000A2C07DEB00307DEB00307DEB00307DEB0030F8
S3153000A2D07DEB00307DEB00307DEB00307DEB0030E8
S3153000A2E07DEB00307DEB00307DEB00307DEB0030D8
S3153000A2F07DEB00307DEB00307DEB00307DEB0030C8
S3153000A3007DEB00307DEB00307DEB00307DEB0030B7
S3153000A3107DEB00307DEB00307DEB00307DEB0030A7
S3153000A3207DEB00307DEB00307DEB00307DEB003097
S3153000A3307DEB00307DEB00307DEB00307DEB003087
S3153000A3407DEB00307DEB00307DEB00307DEB003077
S3153000A3507DEB00307DEB00307DEB00307DEB003067
S3153000A36029EB003031EB003039EB003041EB003077
S3153000A3707DEB00307DEB00307DEB00307DEB003047
S3153000A3807DEB00307DEB003049EB003051EB003097
S3153000A39059EB003061EB00307DEB00307DEB003067
S3153000A3A069EB003071EB00307DEB00307DEB003037
S3153000A3B07DEB00307DEB00307DEB00307DEB003007
S3153000A3C07DEB00307DEB00307DEB00307DEB0030F7
S3153000A3D07DEB00307DEB00307DEB00307DEB0030E7
S3153000A3E07DEB00307DEB00307DEB00307DEB0030D7
S3153000A3F07DEB00307DEB00307DEB0030FFFFFFFF63
S3153000A400DFF8D816C0010858C0F302207047DFF8CD
S3153000A410CC16C001085800F0FF00401C704738B514
S3153000A4200446FFF7EDFFDFF8AC16224601EBC2011A
S3153000A430085C00F0DFFC05462046FFF7E8FFB5FB79
S3153000A440F0F4002C09D140F6C502DFF88C16DFF89F
S3153000A450400700F0A3FDAFF30080204632BD002058
S3153000A460DDE770B5044660686838692808D3792214
S3153000A470DFF86C16DFF86C0600F090FDAFF3008065
S3153000A480DFF86456286880041DD5286800F0FF0080
S3153000A4902179884217D1286800F4C0302178C90361
S3153000A4A001F4C03188420ED12868400403D42868AC
S3153000A4B040F4804028602868400032D5286820F073
S3153000A4C08040286070BDDFF8240600F07BFD2E68E2
S3153000A4D026F0005616F4C04F04D026F4C04646F097
S3153000A4E080462E60606860F30706207860F3D036C9
S3153000A4F046F0804646F440562E60BFF34F8FBFF38A
S3153000A5006F8FDFF80C171E2000F069FE26F4006608
S3153000A5102E6028688000FCD526F0804646F48046BA
S3153000A5202E6070BD70B50446DFF8685628680002A4
S3153000A53026D5002C15D0DFF860160868000402D442
S3153000A540207A00280DD0207A62681288120442EAF6
S3153000A550C03260684088C0F30E0002430868824209
S3153000A5600ED12868800403D4286840F4005028604F
S3153000A5702868400058D5286820F08040286070BD93
S3153000A580DFF8680500F01EFDDFF88C06016861F023
S3153000A5907F3101602E68DFF85406064205D0DFF8B9
S3153000A5A05006064046F080462E60002C16D0207AA3
S3153000A5B0002813D06068002810D0206820F0404072
S3153000A5C0DFF850160860606800886168498841EA9B
S3153000A5D0004141F40041DFF8C005016046F0804695
S3153000A5E046F008062E60DFF8284621461E2000F089
S3153000A5F0F6FD46F4000646F400662E602146FA2043
S3153000A60000F0EDFD26F400662E6028688000FCD54B
S3153000A61046F400562E6026F080462E60DFF8F805A8
S3153000A620016821F08031016070BD2DE9FC41804622
S3153000A6300C46164600252F463046242809DB4FF4B3
S3153000A6409D72DFF89C14DFF8D40500F0A7FCAFF359
S3153000A650008030460C2809DA40F23B12DFF88014CD
S3153000A660DFF8BC0500F09AFCAFF30080B8F1020FBA
S3153000A67003D0B8F1030F05D009E0DFF89C55DFF8B9
S3153000A680E4750DE0DFF8E055DFF8E07508E040F2FC
S3153000A6904912DFF84C149FA000F080FCAFF3008025
S3153000A6A03F232968E00003FA00F00840E100C84083
S3153000A6B080212A684FEAC40C01FA0CFC0CEA02022B
S3153000A6C04FF0080C2CFA04FC22FA0CF2521E92417E
S3153000A6D0D243D20FB446604501D1002A30D0402251
S3153000A6E028684FEAC40C02FA0CFC0CEA0000009011
S3153000A6F028684FEAC40C01FA0CFC4CEA00002860CA
S3153000A700D5F800C0E00083402CEA03032B602B68A9
S3153000A71006F03F0686401E432E6038680223A3406B
S3153000A720584038602B68E000814023EA01012960F7
S3153000A73000982968E30002FA03F319408842F7D0FB
S3153000A740BDE8F381F8B506460D4600273C4602289B
S3153000A7500BD0032809D040F28B12DFF88413DFF8D0
S3153000A760100500F01BFCAFF30080022E02D0032E42
S3153000A7700AD013E0DFF8A00401683F24E8008440E3
S3153000A7800C40DFF8F07412E0DFF8DC0401683F2497
S3153000A790E80084400C40DFF8E07408E040F29B1299
S3153000A7A0DFF83C135BA000F0F9FBAFF30080ED005F
S3153000A7B0EC400C2C09D24FF4D072DFF82413DFF8BA
S3153000A7C0BC0400F0EBFBAFF30080242C09D340F23D
S3153000A7D0A112DFF80C13DFF8840500F0DFFBAFF3CE
S3153000A7E00080002C05D0B7FBF4F000EBC001480028
S3153000A7F0F2BD0020F2BD38B5DFF88444206880020F
S3153000A8000ED52068800403D4206840F400502060C0
S3153000A8102068400035D5206820F08040206031BD6A
S3153000A820DFF8C80200F0CEFBDFF83C04016861F0C7
S3153000A8307F310160206840F0804040F01000206099
S3153000A840DFF8CC5329461E2000F0C9FC206840F4BE
S3153000A850001040F40060206029461E2000F0BFFC46
S3153000A860206820F40060206020688000FCD52068D5
S3153000A87040F4005040F008002060206820F080400E
S3153000A880206031BD80B505283AD8DFE800F00311E5
S3153000A890152331350029DFF85002006802D040F424
S3153000A8A0003001E020F40030DFF83C12086001BDD2
S3153000A8B00120BDE804403EE00029DFF8D8020068F8
S3153000A8C002D040F4803001E020F48030DFF8C4124A
S3153000A8D0086001BD0029DFF8A803006802D040F403
S3153000A8E0803001E020F48030DFF89413086001BD39
S3153000A8F00220BDE804401EE00320BDE804401AE013
S3153000A90040F22322DFF8D8114BA000F047FBAFF31B
S3153000A910008001BD300000000A0002D04FF4005222
S3153000A92000E00022002901D0042100E0082142F491
S3153000A930804200F0EFBD002901D0042100E008215B
S3153000A9404FF4803200F0E6BD002901D0042100E04A
S3153000A95008214FF4800200F0DDBD002901D004212A
S3153000A96000E008214FF4005200F0D4BD38B504465B
S3153000A9700D460121FFF7F1FFDFF89412284600F06B
S3153000A9802EFC00212046BDE83440E6E7002901D000
S3153000A990042100E008214FF4004200F0BBBD00293D
S3153000A9A001D0042100E008214FF4004200F0B2BD8E
S3153000A9B0F8B504460D4616461F46012802D000213A
S3153000A9C0FFF7AAFF0798002809D04288008842EA94
S3153000A9D0004242F400421021204600F09BFD069AC8
S3153000A9E03021204600F096FD32462021204600F0E8
S3153000A9F091FD002000907F232A460146204600F034
S3153000AA0091FD2046012808D0192000904FF0606350
S3153000AA103A460021204600F085FD01212046FFF709
S3153000AA2093FFDFF8EC11642000F0D9FB01212046BA
S3153000AA30BDE8F44070E70000300000000028DFF881
S3153000AA401405016803D121F480410160704741F457
S3153000AA508041016070470028DFF8F804016803D1AF
S3153000AA6021F400510160704741F400510160704794
S3153000AA7080B50020FFF7EFFF0120FFF7DFFF002151
S3153000AA800220FFF78CFF00210220FFF745FF00214F
S3153000AA900220FFF77BFF00210220BDE8044053E788
S3153000AAA00028DFF8B804016803D121F48041016041
S3153000AAB0704741F48041016070470028DFF89C04FC
S3153000AAC0016803D121F400510160704741F400510F
S3153000AAD0016070476CD8003000E200300000CC4096
S3153000AAE064E200302CE300300042C8400040C840E9
S3153000AAF07CB504460026DFF8680400F063FADFF818
S3153000AB005C54286800F02020B0F1202F00D10126B7
S3153000AB1001210320FFF70FFF002E11D00020FFF791
S3153000AB20CCFF0120FFF7BCFF00210320FFF737FFE2
S3153000AB3000210320FFF7F0FE00210320FFF704FF7A
S3153000AB400120FFF7BAFF207C002802D0E0680028F9
S3153000AB5000D100200190A068009063786268217867
S3153000AB600320FFF725FFE1210320FFF7FFFE2868CA
S3153000AB708000FCD501210320FFF711FF0020FFF7ED
S3153000AB808FFF00210320BDE87C40D4E600000000A2
S3153000AB90F0E800304042C8406042C8400028DFF844
S3153000ABA0C803016803D121F480410160704741F444
S3153000ABB08041016070470028DFF8AC03016803D19B
S3153000ABC021F000710160704741F0007101607047FB
S3153000ABD00028DFF89403016803D121F08061016019
S3153000ABE0704741F0806101607047000000208000AE
S3153000ABF0FFDF7FFF0028DFF87003016803D121F4FF
S3153000AC0000510160704741F4005101607047000007
S3153000AC1000CA9A3BA042C8407042C84094E7003010
S3153000AC20ACE7003080B50020FFF7E4FF0020FFF7E7
S3153000AC30C2FF0020FFF7CCFF0120FFF7AFFF002156
S3153000AC400120FFF7ACFE00210120FFF765FE002151
S3153000AC500120FFF79BFE00210120BDE80440FFF7ED
S3153000AC6073BE00005042C8403042C8402042C840FF
S3153000AC7030E5003000A4781F00389C1CC4E7003053
S3153000AC801042C84010B504463021042000F046FC7E
S3153000AC9020F4A060210002D140F4807003E0012C42
S3153000ACA001D140F48060024630210420BDE81040D6
S3153000ACB000F030BC38B52DED048B044604280BD09B
S3153000ACC0052809D040F27D52DFF89812DFF89C0251
S3153000ACD000F064F9AFF300802046042801D1022049
S3153000ACE000E00320002100F019FCC0F3426500F0BB
S3153000ACF07F0009EE100A2046042801D1022000E028
S3153000AD000320302100F00AFC00EE100AB8EE408B2A
S3153000AD10042C01D1022000E00320202100F0FEFBAC
S3153000AD2000EE100AB8EE400BB8EE491B80EE080B69
S3153000AD3031EE000B9FED852B20EE020B012000FA41
S3153000AD4005F501EE105AB8EE411B80EE010BBCEE54
S3153000AD50C00B10EE100ABDEC048B32BDDCE70030C0
S3153000AD6010B5002405282ED8DFE800F0031A1D2080
S3153000AD702328DFF8FC01046804F0FF040068C0F300
S3153000AD80C130032801D1012003E00121401C01FA22
S3153000AD9000F0DFF8E0114000B1FBF0F044431BE077
S3153000ADA0DFF8D44118E0DFF8D44115E0DFF8D041C0
S3153000ADB012E00420FFF77EFF04460DE00520FFF782
S3153000ADC079FF044608E040F2CE52DFF8981162A0CF
S3153000ADD000F0E4F8AFF30080002C09D140F2D152F4
S3153000ADE0DFF88011DFF89C0100F0D8F8AFF300806F
S3153000ADF0204610BD10B500241E2800F28380DFE8FF
S3153000AE0000F01013191619191C1C2121262C323862
S3153000AE103E3E43494F555B6161666C737378787D0E
S3153000AE207D00DFF8644176E0DFF8604173E0DFF8FB
S3153000AE30604170E0DFF83C416DE02046FFF790FF5F
S3153000AE40044668E00220FFF78BFF044663E02146A4
S3153000AE500220FFF777FC04465DE001210220FFF770
S3153000AE6071FC044657E002210846FFF76BFC0446A6
S3153000AE7051E003210220FFF765FC04464BE0032036
S3153000AE80FFF76EFF044646E00320FFF769FF0446EE
S3153000AE90640840E021460320FFF754FC04463AE0BC
S3153000AEA001210320FFF74EFC044634E00221032043
S3153000AEB0FFF748FC04462EE003210846FFF742FC24
S3153000AEC0044628E00120FFF74BFF044623E001202B
S3153000AED0FFF746FF044664081DE00120FFF740FFF8
S3153000AEE00521B0FBF1F416E00420FFF739FF0446E4
S3153000AEF011E00520FFF734FF04460CE0FFF7AFFA08
S3153000AF00044608E040F23D62DFF8581012A000F027
S3153000AF1045F8AFF30080002C09D14FF4C862DFF852
S3153000AF204410DFF8600000F039F8AFF300802046B7
S3153000AF3010BDDFF860000168490849000160DFF89C
S3153000AF405800016841F001010160704700000000BF
S3153000AF5060E376410043C840300000005043C840AB
S3153000AF600040C84064E20030C042C8408CE4003043
S3153000AF700042C84000366E0100CA9A3B00A4781FD2
S3153000AF8000389C1C98E800300024F400006CDC0289
S3153000AF900084D7175040C8406040C84070B504465A
S3153000AFA00D46164633462A462146054800F071FBC3
S3153000AFB032462946204600F09BFB00BEFDE700BF27
S3153000AFC0C8E500301CB504460021084600F0A6FA54
S3153000AFD040F20111884218D040F20512002108468D
S3153000AFE000F098FADFF8DC11642000F0F8F802205F
S3153000AFF00090042300221146084600F093FAD4F854
S3153000B000700540F01000C4F8700513BD38B504461D
S3153000B0100029D4F810051CD120F00500C4F810051D
S3153000B020DFF8A05129464FF47A7000F0D8F8D4F8FA
S3153000B030100520F02000C4F8100529464FF47A7028
S3153000B04000F0CDF8D4F8100520F40020C4F810052F
S3153000B05031BD40084000C4F81005DFF86851294674
S3153000B0604FF47A7000F0BBF8D4F8100540F40020A5
S3153000B070C4F8100529464FF47A7000F0B0F8D4F8C9
S3153000B080100540F02000C4F8100529464FF47A70B8
S3153000B09000F0A5F8D4F8100540F00400C4F8100507
S3153000B0A031BD38B504460029D4F830051CD040F4FB
S3153000B0B00030C4F83005DFF80C5129464FF47A7069
S3153000B0C000F08DF8D4F8300540F48020C4F830050F
S3153000B0D029464FF47A7000F082F8D4F8300520F023
S3153000B0E00400C4F8300531BD40F00400C4F8300522
S3153000B0F0DFF8D05029464FF47A7000F070F8D4F863
S3153000B100300520F48020C4F8300529464FF47A7093
S3153000B11000F065F8D4F8300520F40030C4F8300576
S3153000B12031BD002A46D0002903D002292DD017D3AD
S3153000B1307047D0F8502524490A4024490A43C0F8BC
S3153000B1405025D0F8601521F4E05141F0807141F47A
S3153000B1508061C0F86015D0F86015490130D4FAE73F
S3153000B160D0F8501589088900C0F85015D0F8601508
S3153000B17021F4E05141F0807141F40061C0F860156E
S3153000B180D0F8601549011BD4FAE7D0F85015890874
S3153000B1908900C0F85015D0F8601521F4E05141F01F
S3153000B1A0807141F48051C0F86015D0F860154901BE
S3153000B1B006D4FAE7D0F8602505490A40C0F860257C
S3153000B1C07047000000CA9A3B00E0FF0002100011F1
S3153000B1D0FFE3FFFE0046401E0028FCD170470028E2
S3153000B1E000D1704738B5A1FB0001104A002300F0AA
S3153000B1F081FA04460D46002001218D4209D301D83B
S3153000B200844206D3D52208490948FFF7C7FEAFF373
S3153000B2100080204629460322002300F06BFA4000C6
S3153000B220BDE83240D6E7000000E0003040420F0073
S3153000B230F4E7003010B406281AD8DFE810F007001B
S3153000B2402B005C009200C800FA001C0100299B48C4
S3153000B250016810D021F480310160016862F3070182
S3153000B2600160974803609748016881F48031016036
S3153000B270002010BC704741F480310160016862F3F0
S3153000B280070101608F48016881F4803101608E4882
S3153000B2900068EEE700298D4916D00C6804F4007476
S3153000B2A0086820F480300860086862F30700086098
S3153000B2B087480360086880F480700860086800F486
S3153000B2C00070A042FAD0D3E70B6803F40073086825
S3153000B2D040F480300860086862F307000860086848
S3153000B2E080F480700860086800F400709842FAD0E4
S3153000B2F078480068BDE700291BD0774C216801F4F7
S3153000B3000071206820F480302060206862F30700E6
S3153000B310206072480360206880F480702060206866
S3153000B32000F400708842FAD0206820F48030206023
S3153000B3309EE7694B196801F40071186840F4803053
S3153000B3401860186862F307001860186880F4807017
S3153000B3501860186800F400708842FAD060480068B7
S3153000B36087E700291BD05F4C216801F40071206803
S3153000B37020F480302060206862F3070020605A484D
S3153000B3800360206880F480702060206800F40070CC
S3153000B3908842FAD0206820F48030206068E7514B2C
S3153000B3A0196801F40071186840F480301860186824
S3153000B3B062F307001860186880F4807018601868A7
S3153000B3C000F400708842FAD04848006851E70029F6
S3153000B3D017D0474C216801F40071206820F4803082
S3153000B3E02060206862F307002060424803602068CE
S3153000B3F080F480702060206800F400708842FAD0B3
S3153000B40036E73B4B196801F40071186840F4803018
S3153000B4101860186862F307001860186880F4807046
S3153000B4201860186800F400708842FAD03248006814
S3153000B4301FE70029314908680ED020F480300860B3
S3153000B440086862F3070008602D4803602D480168DC
S3153000B45081F4004101600BE740F4803008600868F1
S3153000B46062F3070008602748016881F400410160F3
S3153000B47025480068FDE60029204908680ED020F4EA
S3153000B48080300860086862F3070008601C48036073
S3153000B4901E48016881F001010160E9E640F4803020
S3153000B4A00860086862F3070008601848016881F090
S3153000B4B00101016016480068DBE600002048C840FC
S3153000B4C03048C8400045C8404048C8405048C84049
S3153000B4D06048C8407048C8408048C8409048C84016
S3153000B4E0A048C840B048C840C048C840D048C84006
S3153000B4F02049C8403049C8404049C840E048C84063
S3153000B500F048C8400044C8401049C8407045C8405B
S3153000B5100049C84013460A4601218BE60A460023F5
S3153000B520194687E62DE9F04104460D4616461F4674
S3153000B530DDF81880FFF7F2FFB84306FA08F63E400A
S3153000B5400643324629462046BDE8F041E2E70EE0A2
S3153000B55002684368024408305FEAC37C44BF4B4408
S3153000B5605B1E52F804CB43F804CB091FF9D150F8CF
S3153000B570041B0029ECD1704710B50C460028FDD0CD
S3153000B580002C03D056490968002901D1002010BD8E
S3153000B59022460146514800F039FA002801D04FF0D2
S3153000B5A0FF34204610BD2DE9F04104460D461646BF
S3153000B5B01F464FF0000810E02868401C802805D34D
S3153000B5C029682046FFF7D8FF0020286028682654CF
S3153000B5D02868401C286008F10108B845ECDBBDE856
S3153000B5E0F0812DE9F84189B006460F461546984652
S3153000B5F005A8102100F00CFA0024684639491422B7
S3153000B60000F01AFACDF8008001978DF80E608DF8AB
S3153000B6101C5048F64170ADF81E002846012802D16C
S3153000B620684608900BE0022802D143F2215406E026
S3153000B630032802D143F2215401E043F2215443F26C
S3153000B6402150844221D0284C00222021204600F06F
S3153000B65037FA201D206005A900F08CF90028FDD1AD
S3153000B6601D480078204600F11801006800F09BF96B
S3153000B6700028FDD1254605F11C01286800F0A9F9FE
S3153000B6800400FED128681649086020460AB0BDE895
S3153000B690F0810EB400B501A900F002F85DF810FB98
S3153000B6A070B5A0B004460D46002632468021684665
S3153000B6B000F006FA0A48006800280AD00B4B6A46A2
S3153000B6C02946204600F005FB01466846FFF754FF41
S3153000B6D00646304620B070BD940000201C00002085
S3153000B6E02400002034E8003004000020A7B50030E4
S3153000B6F000207047BBBBE1B1B2F5803F80F07E8061
S3153000B700022A1ED98C46B1FBF2F102FB11C31B048F
S3153000B71043EA1043B3FBF2FC02FB1C3380B240EA2F
S3153000B7200343B3FBF2F002FB103240EA0C40002335
S3153000B7307047022A05D98446B0FBF2F002FB10C2EC
S3153000B74070474AB105D100F0010249085FEA30007E
S3153000B750704700220023704700F0A0BB0B000200A8
S3153000B760002100207047904271EB030CF6D3B3F5FD
S3153000B770803F2FD2F0B5B3FA83F7B1FA81F4A7F14F
S3153000B7800F0E3D1B5340CEF1200602FA0EF2F34166
S3153000B7905340B5F10F0746D80F3C2C444140C4F115
S3153000B7A02006A040F1414140B1FBF3F603FB1611F0
S3153000B7B0A2FB0645001BA94102D2761E80185941CC
S3153000B7C080EA010221FA0EF362FA0EF200215A40A3
S3153000B7D03046F0BD30B4B1FBF3FC03FB1C11A2FBC9
S3153000B7E00C45001BA94103D2ACF1010C801859411C
S3153000B7F030BC02460B46604600217047B2F1807F6E
S3153000B80065D3F0B5B2FA82F7B1FA81F4C7F10F0613
S3153000B8103D1B22FA06F307F1110EF24120355A404C
S3153000B820B5F10F07B8D94140C4F12006A040F14127
S3153000B8304140B1FBF3FC03FB1C11A2FB0C45001B82
S3153000B840A94103D2BCF1010C801859410F2F12D3F4
S3153000B8500F3FC90341EA5041B1FBF3F603FB161122
S3153000B860A2FB0645D4EBC030A94102D2761E801821
S3153000B870594146EACC3C07B34140C7F12006B840AF
S3153000B880F1414140B1FBF3F603FB1611A2FB06452D
S3153000B890001BA94102D2761E8018594180EA010266
S3153000B8A021FA0EF3C7F1200462FA0EF20CFA07F011
S3153000B8B05A402CFA04F13043F0BD80EA010221FAF5
S3153000B8C00EF3002162FA0EF260465A40F0BD8C4605
S3153000B8D0B1FBF2F102FB11C31B0243EA1063B3FB67
S3153000B8E0F2FC02FB1C331B024CEA002043EA1063D5
S3153000B8F0B3FBF2FC02FB1C331B024CEA002043EA8A
S3153000B9001063B3FBF2FC02FB1C331B024CEA002033
S3153000B91043EA1063B3FBF2FC02FB1C324CEA002014
S3153000B92000237047EFF3108072B6704780F31088AB
S3153000B930704718B4044611461A4643F2215023780C
S3153000B940012B04D104F10C0018BC00F0B3BA12BCC0
S3153000B950704718B413460028FDD00029FDD0002BBF
S3153000B960FDD00468002CFDD00A460146204601B0C1
S3153000B97010BCDEE770B504460D0043F22156FED00A
S3153000B980002CFDD00022142100F09CFA287A207079
S3153000B990287A012805D1E96804F10C0000F07FFA15
S3153000B9A00646304670BD38B504460D46002CFDD0EF
S3153000B9B0002DFDD0FFF7B6FFA168491CA160FFF747
S3153000B9C0B5FF00220421284600F07CFA2C600020C6
S3153000B9D032BDF8B504460D460026002CFDD0002DAC
S3153000B9E0FDD0FFF79FFF07466068002802D043F27C
S3153000B9F0225606E0656032460421284600F062FA97
S3153000BA002C603846FFF792FF3046F2BDA1E7FEE7DD
S3153000BA10002200F059B8FEE762B38B0708D0521EF9
S3153000BA2011F8013B00F8013B00F024808B07F6D17A
S3153000BA30830740F0208000BF103A07D330B4B1E816
S3153000BA403810103AA0E83810F9D230BC530724BF6A
S3153000BA50B1E80810A0E8081044BF51F8043B40F89C
S3153000BA60043BD20724BF31F8022B20F8022B44BF07
S3153000BA700B7803707047121F17D35B0009D151F84A
S3153000BA80043B20F8023B1B0C121F20F8023BF6D277
S3153000BA900BE051F8043B00F8013B1B0A20F8023B4F
S3153000BAA01B0C121F00F8013BF3D238BF121D521E79
S3153000BAB024BF11F8013B00F8013BF8D87047FEE788
S3153000BAC062F30F2262F31F4200B500BF13009646A1
S3153000BAD09446103928BFA0E80C50FAD85FEA417C6A
S3153000BAE028BF0CC048BF40F8042BC90728BF20F830
S3153000BAF0022B48BF00F8012B00BD10B401460020D0
S3153000BB00024605E000EB8004184600EB440030386E
S3153000BB1013000CD10B685B1C0B601B78A3F130044F
S3153000BB200A2CEFD30A68521E0A600122F0E710BCD5
S3153000BB30704730B40146062000220B685B1C1C7827
S3153000BB402E2C12D1104605E000EB8005204600EB86
S3153000BB5045003038140009D113F8014FA4F13005EF
S3153000BB600A2DF1D35B1E0122F4E75B1E0B6030BC5D
S3153000BB707047014600200A466F2A05D0622A03D054
S3153000BB80702A01D0752900D1012070470146002066
S3153000BB900A46642A01D0692900D101207047F8B5D8
S3153000BBA00B46069C079D089E099F9B1A2022394604
S3153000BBB03046A84705E0012314F8012939463046B6
S3153000BBC0A84720780028F6D1F1BDF8B50B46069C7B
S3153000BBD0079D089E099F9B1A202239463046A84762
S3153000BBE005E0012314F8012939463046A847207864
S3153000BBF00028F6D1F1BD014600200A46662A01D05A
S3153000BC00462900D101207047014600200A46782A8D
S3153000BC1001D0582900D101207047016811F8012F51
S3153000BC20682AFBD06C2AF9D0491E0160704701465C
S3153000BC306F2901D108207047622901D1022070474F
S3153000BC40702801D1102070470A20704770B4039CC9
S3153000BC500022154600F8015B0968002911D1302110
S3153000BC600170012019E0612504E02546EDB2002D72
S3153000BC70F9D0412569180A390D46314600F8015B7D
S3153000BC80521C002908D0B1FBF3F603FB16110A2922
S3153000BC90EBD230310D46F0E7104670BC70470A687B
S3153000BCA00A6012680B681B1D0B60026070470A68D9
S3153000BCB00A6012680B681B1D0B60026070470A68C9
S3153000BCC00A6012680B681B1D0B600260704700F03B
S3153000BCD02DB92DE9F24191B015461E460021059148
S3153000BCE00691049006E0012305A92846B04704983A
S3153000BCF0401C049004980078002839D004980278C3
S3153000BD0010462528EFD14FF0010811A904A8FFF7F6
S3153000BD10F4FE0746002211A904A8FFF70AFF04A87B
S3153000BD20FFF77BFF0498401C049004782046FFF709
S3153000BD302DFF012820D111A907A8FFF7B0FF4046F3
S3153000BD4000900A23024607A908A8FFF77FFF05A936
S3153000BD5003910295019608A90144009100230246F9
S3153000BD6039461846FFF71BFF0498401C0490C1E77C
S3153000BD70059812B0BDE8F0812046FFF73CFF012858
S3153000BD8006D11198C01D20F0070008301190EBE75E
S3153000BD902046FFF739FF01281DD1782C01D14FF00D
S3153000BDA0000811A906A8FFF782FF4046009010232D
S3153000BDB0002206A908A8FFF749FF05A903910295B5
S3153000BDC0019608A9014400914346024639460020AF
S3153000BDD0FFF7FBFEC8E72046FFF7CBFE01282046DB
S3153000BDE02AD170280BD1119800681199091D11912B
S3153000BDF000900422694606A8FFF70EFE03E011A95B
S3153000BE0006A8FFF75CFF2046FFF711FF4146009179
S3153000BE100346002206A908A8FFF718FF05A90391D3
S3153000BE200295019608A9014400910023024639463D
S3153000BE301846FFF7B4FE97E763280BD111980068D0
S3153000BE401199091D119143460246D2B205A92846D9
S3153000BE50B04789E773281AD111980468001D1190EC
S3153000BE60002C3FF481AF2046FFF731FF3F1A3B46A7
S3153000BE70202205A92846B047207800283FF474AF21
S3153000BE80434614F8012B05A92846B047F4E7434644
S3153000BE90224605A92846B04766E7FEE7704780B5D3
S3153000BEA00029FDD00028FDD000F0B5F80028FDD1DE
S3153000BEB0002002BD0028FDD00029FDD0002AFDD08B
S3153000BEC000F0E2B862F30F2262F31F42401810F01E
S3153000BED0030308D0C91A1FD3DB0748BF00F8012D6A
S3153000BEE028BF20F8022D130030B4144615461039F9
S3153000BEF028BF20E93C00FAD8490728BF20E90C00C2
S3153000BF0048BF40F8042D890028BF20F8022D48BFCD
S3153000BF1000F8012D30BC7047C91818BF00F8012D44
S3153000BF20CB0728BF00F8012D7047FEE700F101036B
S3153000BF30810704D010F8011B820781B1FAD102685B
S3153000BF40A2F10131914311F0803104BF50F8042F32
S3153000BF50F6E709BAB1FA81F100EBD100401CC01AFC
S3153000BF607047FEE7002801D10020704742F6AF70D7
S3153000BF70704730B585B00C460025684600F018FA93
S3153000BF8060680090207A8DF80400607A8DF807009A
S3153000BF90A07A401E8041C043C00F8DF81100E07A70
S3153000BFA0401E8041C043C00F8DF81000E07B002852
S3153000BFB005D0042800DB0420401E8DF80800207CC4
S3153000BFC0002805D0042800DB0420401E8DF8090027
S3153000BFD0207B401E8041C043C00F8DF80A00607B35
S3153000BFE0401E8041C043C00F8DF80B0001208DF8F4
S3153000BFF00E008DF80F00226869463948A37B50F849
S3153000C000230000F0C4F8002802D0FFF7ABFF054646
S3153000C010284605B030BD38B504460D46002C07D14C
S3153000C02040F2BA222F493048FEF7B8FFAFF300800E
S3153000C030002D07D140F2BB222A492C48FEF7AEFF2D
S3153000C040AFF30080A87B0D2807D34FF42F72254914
S3153000C0502748FEF7A3FFAFF300802148A97B50F8AD
S3153000C0602100002807D140F2BD221E492148FEF7A3
S3153000C07095FFAFF3008029462046FFF77AFF01008F
S3153000C08001D1A97B217032BD70B504460D461646E6
S3153000C090002C07D140F2193212491348FEF77EFFC1
S3153000C0A0AFF30080002D07D140F21A320D49124805
S3153000C0B0FEF774FFAFF30080002E07D140F21B323B
S3153000C0C008490E48FEF76AFFAFF30080324629462C
S3153000C0D00348237850F8230000F08FF9002070BD14
S3153000C0E0FCE400309CE1003074E8003020E8003099
S3153000C0F080E3003098E5003080E800308CE800308E
S3153000C10010B4DFF834230B4603F001030446640110
S3153000C110145904F00104A34214D00B4603F0010372
S3153000C120044664011351BFF34F8FBFF36F8F03463D
S3153000C13002EB43131B6903F001030C4604F00104C0
S3153000C140A342F4D110BC70470121D9E7816841F090
S3153000C15002018160816821F002018160704710B56B
S3153000C160002406E0DFF8D41251F8241081420CD0B6
S3153000C170641C0D2CF6D308D3BF22DFF8C412DFF8C7
S3153000C180C402FEF70BFFAFF30080204610BD2DE949
S3153000C190F04107460C461546002C09D140F23712BD
S3153000C1A0DFF89C12DFF8A402FEF7F8FEAFF300804A
S3153000C1B02068002809D14FF49C72DFF88412DFF82A
S3153000C1C09002FEF7EBFEAFF30080207A042809DBFD
S3153000C1D04FF49D72DFF86812DFF87802FEF7DEFE64
S3153000C1E0AFF30080607A042809DB40F23B12DFF8B7
S3153000C1F05012DFF86402FEF7D1FEAFF3008000265E
S3153000C2002168B0463046042220E0AEEB030E17E03C
S3153000C21063469BB2B3F5005F01D341F6FF7C964689
S3153000C2205FFA8EFE63469BB203FB0EFEB5FBFEF352
S3153000C230D4F800E09E45E8D29E462368AEEB030E66
S3153000C240714502D3714690466046521C1346DBB2A6
S3153000C250212B17D205EB85035B00D4F800E094461A
S3153000C2605FFA8CFC0CFB0EFEB3FBFEF35B1D4FF04E
S3153000C2700A0CB3FBFCFC63469BB2002BC8D14FF0D3
S3153000C280010CCCE7054620686422B0FBF2F000EBE7
S3153000C2904000884202D240F2215686E03846FFF707
S3153000C2A05EFFDFF8B811085CFFF74EFF3846FFF740
S3153000C2B04DFF38694146C9B2091F042901D240F4FD
S3153000C2C0003065F30C005FFA88F8A8F1010868F3CE
S3153000C2D01C603861386920F000503861B869DFF881
S3153000C2E08011014020790143E07B000200F4E060D8
S3153000C2F00143A07B800000F00400014360790128EF
S3153000C300207907D1002802D021F4006106E041F4FB
S3153000C310006103E0002801D041F01001B9613869AD
S3153000C32020F40050E179490301F4005108433861A3
S3153000C330607A217A41EA0041F962B86A40F08800B1
S3153000C340B862B86A40F44040B862DFF81801796ADA
S3153000C350627B120102F010021143227B520102F07D
S3153000C360200211437962A17A012903D1796A41F019
S3153000C37008017962E17A012903D1796A41F0010134
S3153000C3807962A179012901D1DFF8BC0179690843C5
S3153000C3907861B869217C012901D140F40020617CA3
S3153000C3A0012901D140F48020B8613046BDE8F081E2
S3153000C3B010B5040009D140F25B22DFF88410DFF8B3
S3153000C3C08C00FEF7EBFDAFF30080002214212046EF
S3153000C3D0FFF776FB4FF4E13020600020207160716A
S3153000C3E0A071E07120726072A072E0726073207387
S3153000C3F0A073E0732074607410BD70B506460D46A8
S3153000C4001446002D11D140F20B42DFF83410DFF81C
S3153000C4103800FEF7C3FDAFF3008006E07069000216
S3153000C420FCD515F8010BF061641E002CF6D170694D
S3153000C4304002FCD5002070BD0060CC4064E5003081
S3153000C4406CE0003010E40030B0E80030BCE800307A
S3153000C45044E70030F4E500301CE6003058E80030A0
S3153000C460E8F8FFFF00C01FC080B53D4841683E4830
S3153000C4703C4A52689047BFF34F8F01BD80B538486C
S3153000C48081683A48374A92689047BFF34F8F01BD6B
S3153000C49080B53348C1683648324AD2689047BFF3D0
S3153000C4A04F8F01BD80B52E48016932482D4A126939
S3153000C4B09047BFF34F8F01BD80B5294841692E485B
S3153000C4C0284A52699047BFF34F8F01BD80B5244843
S3153000C4D081692A48234A92699047BFF34F8F01BD3D
S3153000C4E080B51F48C16926481E4AD2699047BFF3B6
S3153000C4F04F8F01BD80B51A48016A2248194A126A1F
S3153000C5009047BFF34F8F01BD80B51548416A1E482D
S3153000C510144A526A9047BFF34F8F01BD80B5104819
S3153000C520816A1A480F4A926A9047BFF34F8F01BD0E
S3153000C53080B50B48C16A16480A4AD26A9047BFF39B
S3153000C5404F8F01BD0000000000C01FE080B50448D9
S3153000C550016B1048034A126B9047BFF34F8F01BDF2
S3153000C560280000205C00002000C007400000084082
S3153000C570004008400080084000C0084000000940E4
S3153000C580004009400080094000C0094000000A40D0
S3153000C5900040C2400080C240DFF8A819C0010858E8
S3153000C5A0C0F302207047DFF89C19C001085800F02C
S3153000C5B0FF00401C704738B505460C0009D140F6DF
S3153000C5C06F02DFF88419DFF88409FEF7E7FCAFF372
S3153000C5D000802078002801D0000600E00020617835
S3153000C5E0090201F4E061A278521E02F0FF02114303
S3153000C5F00843DFF85019ED014851BFF34F8FBFF3B1
S3153000C6006F8F31BD38B50446FFF7C6FFDFF84019E6
S3153000C610224601EBC201085CFEF7ECFB05462046DC
S3153000C620FFF7C1FFB5FBF0F4002C09D140F6C50287
S3153000C630DFF81419DFF81C09FEF7B0FCAFF3008001
S3153000C640204632BD0028DFF81009016803D041F0DA
S3153000C65002010160704721F0020101607047002835
S3153000C660DFF8F408016803D041F08071016070474B
S3153000C67021F08071016070470028DFF8E00801681A
S3153000C68003D041F002010160704721F002010160E0
S3153000C690704710B40B46092B07DB8168890802F016
S3153000C6A0030252EA810282601FE0072B07DB4168F2
S3153000C6B0890802F0030252EA8102426015E0042B37
S3153000C6C0036809DB03248C40A34302F0030202FA19
S3153000C6D001F11943016008E007248C40A34302F0BE
S3153000C6E0070202FA01F11943016010BC704710B419
S3153000C6F0C468DFF86C382340890201F4806119433D
S3153000C7001143C16010BC7047426922F00052426149
S3153000C710426861F30C22426081680029FCD570477B
S3153000C7201CB5002203216846FFF7CAF9DFF8344802
S3153000C730204600F043FCDFF830080068DFF82C189C
S3153000C74088420BD1DFF82808006800F0FF000B287C
S3153000C75004D116212046FFF7D7FF03E015212046E6
S3153000C760FFF7D2FFDFF80C080068C0F3001000288E
S3153000C77006D101220021DFF80008FEF7D2FC05E0E1
S3153000C78000221146DFF8F007FEF7CBFCDFF8E8476A
S3153000C79001212046FEF73AFC01212046FEF781FCB6
S3153000C7A00220FEF76FFADFF8D407016841F0020184
S3153000C7B00160FEF7BEFB0020FFF75EFF0120FFF7AA
S3153000C7C041FF0120FFF74BFFDFF8B407016841F066
S3153000C7D01401016001684900FCD500208DF8010084
S3153000C7E001208DF8020069460020FFF7E4FE0020A4
S3153000C7F08DF8010001208DF8020069460820FFF708
S3153000C800DAFEDFF88007FDF72CFE01210846FEF739
S3153000C81039F8FEF707FADFF87007FDF783FE1B22BB
S3153000C82000210220FDF701FF102201210220FDF731
S3153000C830FCFE182202210846FDF7F7FE20220321CE
S3153000C8400220FDF7F2FEFDF7D6FF0D220021032070
S3153000C850FDF7EBFE112201210320FDF7E6FE202233
S3153000C86002210320FDF7E1FE162203210846FDF7DB
S3153000C870DCFE01210420FEF705F8FEF7F9F8DFF8B3
S3153000C8800C07FEF735F904208DF8010001208DF8EC
S3153000C890020069460020FFF78EFE04208DF8010065
S3153000C8A002208DF802006946FFF785FE05208DF8D7
S3153000C8B0010003208DF802006946FFF77CFE062052
S3153000C8C08DF8010003208DF8020069460420FFF739
S3153000C8D072FE00208DF8010001208DF802006946B5
S3153000C8E00520FFF768FE07208DF8010004208DF83B
S3153000C8F0020069460620FFF75EFE00208DF8010033
S3153000C900F0208DF8020069460820FFF754FE00201B
S3153000C9108DF8010001208DF8020069460920FFF7E5
S3153000C9204AFE00208DF8010001208DF8020069468C
S3153000C9300A20FFF740FE00208DF8010001208DF817
S3153000C940020069460B20FFF736FE00208DF8010005
S3153000C95001208DF8020069460C20FFF72CFE0020DE
S3153000C9608DF8010001208DF8020069460D20FFF791
S3153000C97022FE00208DF8010001208DF80200694664
S3153000C9800E20FFF718FE00208DF8010001208DF8EB
S3153000C990020069460F20FFF70EFE00208DF80100D9
S3153000C9A001208DF8020069461020FFF704FE0020B2
S3153000C9B08DF8010001208DF8020069461120FFF73D
S3153000C9C0FAFD00208DF8010001208DF8020069463D
S3153000C9D01220FFF7F0FD00208DF8010001208DF8C0
S3153000C9E0020069461320FFF7E6FD00208DF80100AE
S3153000C9F001208DF8020069461520FFF7DCFD002086
S3153000CA008DF8010001208DF8020069461620FFF7E7
S3153000CA10D2FD00208DF8010001208DF80200694614
S3153000CA201720FFF7C8FD00208DF8010001208DF892
S3153000CA30020069461820FFF7BEFD06208DF801007A
S3153000CA4016208DF8020069461920FFF7B4FD06203E
S3153000CA508DF8010016208DF8020069461A20FFF77E
S3153000CA60AAFD00208DF8010001208DF802006946EC
S3153000CA701B20FFF7A0FD00208DF8010001208DF866
S3153000CA80020069461C20FFF796FD00208DF8010054
S3153000CA9001208DF8020069461D20FFF78CFD00202D
S3153000CAA08DF8010001208DF8020069461E20FFF73F
S3153000CAB082FD00208DF8010001208DF802006946C4
S3153000CAC01F20FFF778FD00208DF8010001208DF83A
S3153000CAD0020069462020FFF76EFD00208DF8010028
S3153000CAE001208DF8020069462120FFF764FD002001
S3153000CAF08DF8010001208DF8020069462220FFF7EB
S3153000CB005AFD00208DF8010001208DF8020069469B
S3153000CB102320FFF750FD00208DF8010001208DF80D
S3153000CB20020069462420FFF746FD00208DF80100FB
S3153000CB3001208DF8020069462520FFF73CFD0020D4
S3153000CB408DF8010001208DF8020069462620FFF796
S3153000CB5032FD00208DF8010001208DF80200694673
S3153000CB602720FFF728FD00208DF8010001208DF8E1
S3153000CB70020069462820FFF71EFD00208DF80100CF
S3153000CB8001208DF8020069462920FFF714FD0020A8
S3153000CB908DF8010001208DF8020069462A20FFF742
S3153000CBA00AFD00208DF8010001208DF8020069464B
S3153000CBB02B20FFF700FD00208DF8010001208DF8B5
S3153000CBC0020069462C20FFF7F6FC00208DF80100A4
S3153000CBD001208DF8020069462D20FFF7ECFC00207D
S3153000CBE08DF8010001208DF8020069462E20FFF7EE
S3153000CBF0E2FC00208DF8010001208DF80200694624
S3153000CC002F20FFF7D8FC00208DF8010001208DF889
S3153000CC10020069463020FFF7CEFC00208DF8010077
S3153000CC2001208DF8020069463120FFF7C4FC002050
S3153000CC308DF8010001208DF8020069463220FFF799
S3153000CC40BAFC00208DF8010001208DF802006946FB
S3153000CC503320FFF7B0FC00208DF8010001208DF85D
S3153000CC60020069463420FFF7A6FC00208DF801004B
S3153000CC7001208DF8020069463520FFF79CFC002024
S3153000CC808DF8010001208DF8020069463620FFF745
S3153000CC9092FC00208DF8010001208DF802006946D3
S3153000CCA03720FFF788FC00208DF8010001208DF831
S3153000CCB0020069463820FFF77EFC00208DF801001F
S3153000CCC001208DF8020069463920FFF774FC0020F8
S3153000CCD08DF8010001208DF8020069463A20FFF7F1
S3153000CCE06AFC00208DF8010001208DF802006946AB
S3153000CCF03B20FFF760FC00208DF8010001208DF805
S3153000CD00020069463C20FFF756FC00208DF80100F2
S3153000CD1001208DF8020069463D20FFF74CFC0020CB
S3153000CD208DF8010001208DF8020069463E20FFF79C
S3153000CD3042FC00208DF8010001208DF80200694682
S3153000CD403F20FFF738FC00208DF8010001208DF8D8
S3153000CD50020069464020FFF72EFC00208DF80100C6
S3153000CD6001208DF8020069464120FFF724FC00209F
S3153000CD708DF8010001208DF8020069464220FFF748
S3153000CD801AFC00208DF8010001208DF8020069465A
S3153000CD904320FFF710FC07208DF8010002208DF8A4
S3153000CDA0020069464420FFF706FC00208DF801009A
S3153000CDB001208DF8020069464520FFF7FCFB002074
S3153000CDC08DF8010001208DF8020069464620FFF7F4
S3153000CDD0F2FB00208DF8010001208DF80200694633
S3153000CDE04720FFF7E8FB00208DF8010001208DF881
S3153000CDF0020069464820FFF7DEFB00208DF801006F
S3153000CE0001208DF8020069464920FFF7D4FB002047
S3153000CE108DF8010001208DF8020069464A20FFF79F
S3153000CE20CAFB00208DF8010001208DF8020069460A
S3153000CE304B20FFF7C0FB00208DF8010001208DF854
S3153000CE40020069464C20FFF7B6FB00208DF8010042
S3153000CE5001208DF8020069464D20FFF7ACFB00201B
S3153000CE608DF8010001208DF8020069464E20FFF74B
S3153000CE70A2FBDFF81C41002211462046FFF709FCD1
S3153000CE80032211462046FFF704FC002206212046E5
S3153000CE90FFF7FFFB002208212046FFF7FAFB0022AE
S3153000CEA00A212046FFF7F5FB002211462046FFF700
S3153000CEB01EFCDFF8E000016821F002010160DFF8B6
S3153000CEC0D80001684908490041F004010160016851
S3153000CED021F002010160DFF8C400016821F002018F
S3153000CEE001600168490849000160DFF8B400016853
S3153000CEF0490849000160DFF8AC000168490849007B
S3153000CF000160DFF8A4000168490849000160DFF8D4
S3153000CF109C000168490849000160DFF89400016807
S3153000CF20490849000160DFF88C000168490849006A
S3153000CF3001600020FFF766FBDFF87C10086013BD48
S3153000CF40000000000000CC4038E10030D8E8003066
S3153000CF50F4D50030E0E800301040C8405040C840BA
S3153000CF6000FBFFFF0080CA4000C9CA406959AC5770
S3153000CF7010C9CA4070C8CA400040C840C040C84006
S3153000CF802040C840E8E8003068E800300CE800305F
S3153000CF9000400E4010400E4014400E4018400E40E7
S3153000CFA058400E405C400E4060400E4064400E409B
S3153000CFB068400E406C400E400000002082680D49EB
S3153000CFC00A408260C16821F01001C160C16841F039
S3153000CFD00801C160016921F4606141F42061016199
S3153000CFE0416921F4C0114161416941F480214161B7
S3153000CFF070470000FEFFFFFBBFF35F8F40F001007C
S3153000D000B4490860B448016841F480310160BFF327
S3153000D0104F8FBFF36F8F7047BFF35F8FAE48016896
S3153000D02021F480310160AB4801684908490001604C
S3153000D030BFF34F8FBFF36F8F7047A849C0010858B1
S3153000D040C0F302207047A549C001085800F0FF0020
S3153000D050401C704738B50446FFF7EFFFA04922461B
S3153000D06001EBC201085CFDF7C5FE05462046FFF719
S3153000D070EAFFB5FBF0F4002C07D140F6C50299491A
S3153000D0809948FDF78BFFAFF30080204632BD19205B
S3153000D090E0E780B5FFF7FBFF034601224FF4E131AD
S3153000D0A01046BDE80050FEF79CBA2DE9FF4100203E
S3153000D0B000908E4C206880030ED5BFF34F8FBFF3A0
S3153000D0C06F8F206820F40030206000208849086087
S3153000D0D0BFF34F8FBFF36F8F2068C00337D5002063
S3153000D0E084490860BFF34F8F206820F48030206079
S3153000D0F0BFF34F8F804802A9016001A9016003A9DF
S3153000D1000160BFF34F8FBFF36F8F7C480068039089
S3153000D110C0F34E3002900398C0F3C90001900298D4
S3153000D12043F6E07101EA4011019841EA8071744892
S3153000D13001600198411E01910028F0D10298411EEC
S3153000D14002910028E7D1BFF34F8FBFF36F8FFFF700
S3153000D15063FF6C4D102028606B4E6C4830606C4815
S3153000D16028606C4830606C49296030601320286034
S3153000D1706A483060142028606948306069492960FF
S3153000D1803060694828606948306069482860694875
S3153000D19030606948286069483060694F01E0401C5A
S3153000D1A0009000983946C14002290098F7D20028ED
S3153000D1B039D0DFF89081B8FBF7F007FB10800028F4
S3153000D1C007D04FF4D37260496048FDF7E7FEAFF3FE
S3153000D1D000800121009881408F4207D040F2A7128B
S3153000D1E059495B48FDF7DAFEAFF300800098052811
S3153000D1F007D24FF4D47254495648FDF7CFFEAFF3F9
S3153000D20000804FEA58184FEA481848F01A08C5F80F
S3153000D21000800098401E400000F03E0040F0427012
S3153000D22040F0010030604C4828604C4830604C4833
S3153000D23028604C4830604C4929604C4931604C4A32
S3153000D2402A6030604B48286031600620FFF7D4FEF4
S3153000D2502068C00325D4002026490860BFF34F8FCD
S3153000D26026480168C1F34E32434CC1F3C90343F635
S3153000D270E07000EA421040EA837020601846431E90
S3153000D2800028F4D11046421E0028EED1BFF34F8F4E
S3153000D290164C206840F480302060BFF34F8FBFF3C8
S3153000D2A06F8F2068800312D4BFF34F8FBFF36F8F19
S3153000D2B000200F490860BFF34F8FBFF36F8F206890
S3153000D2C040F400302060BFF34F8FBFF36F8FBDE85F
S3153000D2D0FF81000094ED00E024ED00E00000CC403A
S3153000D2E07CD30030D4E00030C8E8003014ED00E0E4
S3153000D2F050EF00E084ED00E070EF00E080ED00E0FC
S3153000D30074EF00E09CED00E0A0ED00E03F0000107F
S3153000D3101100008039001003120000603B0010033A
S3153000D32023000303150000201600202027000303E6
S3153000D3301700302025000303180000302F000306A5
S3153000D3400000000000002C208CDF00307CE700302D
S3153000D35028E70030D0E800301B0000402F001003D3
S3153000D3601C000041290010031D0040412700100316
S3153000D3701E0080411F00004260EF00E002050300FE
S3153000D38007160F1C02050300140F091802050300C7
S3153000D3900F18090D02050300140F091802050300C2
S3153000D3A018090B11020503001018090D02050300B8
S3153000D3B010180B0902050300140F0A1802050300A2
S3153000D3C00910180A020503001018090D020503009A
S3153000D3D01018090D020503000F181A0D0205030077
S3153000D3E01018090D020503001018090D0205030077
S3153000D3F0101813140205030010181A1C0205030036
S3153000D40010181A1C02050300101813140205030025
S3153000D4101018131402050300101813140205030024
S3153000D42011090C0F0205030011090C0F0205030048
S3153000D4301018090D020503001018090D0205030026
S3153000D440140F0D18020503001018090D020503000C
S3153000D4501018090D020503001018090D0205030006
S3153000D4601018090D020503001018090D02050300F6
S3153000D4701018090D020503001018090D02050300E6
S3153000D4801018090D020503001018090D02050300D6
S3153000D4901018090D02050300140F0D1802050300BC
S3153000D4A0140F0D18020503001018090D02050300AC
S3153000D4B01018090D020503001018090D02050300A6
S3153000D4C01018090D02050300140F0D18020503008C
S3153000D4D0140F0D18020503001318090D0205030079
S3153000D4E01318090D020503001318090D0205030070
S3153000D4F01318090D02050300140F13180205030053
S3153000D500140F1318020503001018090D0205030045
S3153000D5101018090D02050300171A180B020503002F
S3153000D520171A180B02050300171A180B0205030009
S3153000D530171A180B02050300171A180B02050300F9
S3153000D540171A180B02050300171A180B02050300E9
S3153000D5500C0A1807020503000C0A18070205030017
S3153000D56018101A0D0205030018101A0D02050300D3
S3153000D570140F1A18020503001A0F130D02050300C3
S3153000D5801A13180D020503001A13180D02050300AD
S3153000D5901A13180D02050300140F1A18020503009A
S3153000D5A0090B0F1C02050300090C111C02050300B0
S3153000D5B0090C111C02050300090A111C020503009F
S3153000D5C0090A111C020503000C0F0A1C0205030090
S3153000D5D00C0F0A1C020503000C0F0A1C020503007F
S3153000D5E00C0F121C020503000C0912180205030069
S3153000D5F00D01121A0205030007160F1C020503005F
S3153000D600140F0918020503000F18090D020503004F
S3153000D610140F09180205030018090B11020503003F
S3153000D6201018090D0205030010180B090205030036
S3153000D630140F0A18020503000910180A0205030020
S3153000D6401018090D020503001018090D0205030014
S3153000D6500F181A0D020503001018090D02050300F4
S3153000D6601018090D020503001018131402050300E3
S3153000D67010181A1C0205030010181A1C02050300A4
S3153000D68010181314020503001018131402050300B2
S3153000D690101813140205030011090C0F02050300BC
S3153000D6A011090C0F020503001018090D02050300BD
S3153000D6B01018090D02050300140F0D18020503009A
S3153000D6C01018090D020503001018090D0205030094
S3153000D6D01018090D020503001018090D0205030084
S3153000D6E01018090D020503001018090D0205030074
S3153000D6F01018090D020503001018090D0205030064
S3153000D7001018090D020503001018090D0205030053
S3153000D710140F0D1802050300140F0D18020503002F
S3153000D7201018090D020503001018090D0205030033
S3153000D7301018090D020503001018090D0205030023
S3153000D740140F0D1802050300140F0D1802050300FF
S3153000D7501318090D020503001318090D02050300FD
S3153000D7601318090D020503001318090D02050300ED
S3153000D770140F131802050300140F131802050300C3
S3153000D7801018090D020503001018090D02050300D3
S3153000D790171A180B02050300171A180B0205030097
S3153000D7A0171A180B02050300171A180B0205030087
S3153000D7B0171A180B02050300171A180B0205030077
S3153000D7C0171A180B020503000C0A18070205030086
S3153000D7D00C0A18070205030018101A0D020503007B
S3153000D7E018101A0D02050300140F1A18020503004B
S3153000D7F01A0F130D020503001A13180D0205030044
S3153000D8001A13180D020503001A13180D020503002A
S3153000D810140F1A1802050300090B0F1C020503002A
S3153000D820090C111C02050300090C111C020503002A
S3153000D830090A111C02050300090A111C020503001E
S3153000D8400C0F0A1C020503000C0F0A1C020503000C
S3153000D8500C0F0A1C020503000C0F121C02050300F4
S3153000D8600C091218020503000D01121A02050300F5
S3153000D87007160F1C02050300140F091802050300D2
S3153000D8800F18090D02050300140F091802050300CD
S3153000D89018090B11020503001018090D02050300C3
S3153000D8A010180B0902050300140F0A1802050300AD
S3153000D8B00910180A020503001018090D02050300A5
S3153000D8C01018090D020503000F181A0D0205030082
S3153000D8D01018090D020503001018090D0205030082
S3153000D8E0101813140205030010181A1C0205030041
S3153000D8F010181A1C02050300101813140205030031
S3153000D900101813140205030010181314020503002F
S3153000D91011090C0F0205030011090C0F0205030053
S3153000D9201018090D020503001018090D0205030031
S3153000D930140F0D18020503001018090D0205030017
S3153000D9401018090D020503001018090D0205030011
S3153000D9501018090D020503001018090D0205030001
S3153000D9601018090D020503001018090D02050300F1
S3153000D9701018090D020503001018090D02050300E1
S3153000D9801018090D02050300140F0D1802050300C7
S3153000D990140F0D18020503001018090D02050300B7
S3153000D9A01018090D020503001018090D02050300B1
S3153000D9B01018090D02050300140F0D180205030097
S3153000D9C0140F0D18020503001318090D0205030084
S3153000D9D01318090D020503001318090D020503007B
S3153000D9E01318090D02050300140F1318020503005E
S3153000D9F0140F1318020503001018090D0205030051
S3153000DA001018090D02050300171A180B020503003A
S3153000DA10171A180B02050300171A180B0205030014
S3153000DA20171A180B02050300171A180B0205030004
S3153000DA30171A180B02050300171A180B02050300F4
S3153000DA400C0A1807020503000C0A18070205030022
S3153000DA5018101A0D0205030018101A0D02050300DE
S3153000DA60140F1A18020503001A0F130D02050300CE
S3153000DA701A13180D020503001A13180D02050300B8
S3153000DA801A13180D02050300140F1A1802050300A5
S3153000DA90090B0F1C02050300090C111C02050300BB
S3153000DAA0090C111C02050300090A111C02050300AA
S3153000DAB0090A111C020503000C0F0A1C020503009B
S3153000DAC00C0F0A1C020503000C0F0A1C020503008A
S3153000DAD00C0F121C020503000C0912180205030074
S3153000DAE00D01121A10B4414A0B4603F001030446E5
S3153000DAF06401145904F00104A34214D00B4603F018
S3153000DB000103044664011351BFF34F8FBFF36F8F88
S3153000DB10034602EB43131B6903F001030C4604F082
S3153000DB200104A342F4D110BC70470121DAE769E061
S3153000DB3010B5002400E0641C102C04D22C4951F896
S3153000DB4024108142F7D1102C06D33C2229492A4889
S3153000DB50FDF724FAAFF30080204610BDF8B5044631
S3153000DB600D461646FFF7E4FF0E2806D223490A5C17
S3153000DB708A2A02D01046FFF7D8FF0127616907FAD3
S3153000DB8005F0814361613078002805D16068AF4087
S3153000DB9020EA0707676008E072782946204600F0D9
S3153000DBA00AF86068AF4007436760B2782946204676
S3153000DBB0BDE8F840BBE770B504460D461646202D45
S3153000DBC006D375220B490E48FDF7E8F9AFF300800E
S3153000DBD0002E05D1012000FA05F5C4F8885070BD35
S3153000DBE0012000FA05F5C4F8845070BD0060CC40C1
S3153000DBF0D0E30030C8E2003050E4003048E800306E
S3153000DC00A4E8003070B40C460125C66905FA01F364
S3153000DC109E43C661102902D200F10C0302E000F1E6
S3153000DC201003103C521E042A2AD8DFE802F0030AF9
S3153000DC30131D240019680322600082409143196045
S3153000DC401EE01968032260008240914385400D43EF
S3153000DC501D6015E01968032260008240914302225C
S3153000DC608240114319600BE019680322600082403C
S3153000DC701143196004E0C26905FA01F11143C1612B
S3153000DC8070BC70473B48016841F4700101603A4905
S3153000DC900888400704D50A884FF6FB7002400A8090
S3153000DCA036490888400704D50A884FF6FB7002408B
S3153000DCB00A8033490868800403D53248324A1060F6
S3153000DCC006E031484CF2205202604DF628120260CE
S3153000DCD04FF6FF702D4A10600A6822F0800242F03B
S3153000DCE020020A602A490A68920403D5254A294B3C
S3153000DCF01A6006E0274A4CF2205313604DF628137B
S3153000DD001360254A1060086820F0800040F020003B
S3153000DD10086022480168C90703D5016849084900E7
S3153000DD2001601F480168890315D40168890312D43C
S3153000DD30BFF34F8FBFF36F8F00211A4A1160BFF3C5
S3153000DD404F8FBFF36F8F016841F400310160BFF32D
S3153000DD504F8FBFF36F8F14490A6822F400520A605E
S3153000DD60016841F010010160BFF34F8FBFF36F8F31
S3153000DD7000F01DB888ED00E000000340004003408D
S3153000DD800080034020C528D9048003400880034022
S3153000DD900000C1400400C1400800C14010E000E06E
S3153000DDA014ED00E050EF00E070400E4070477047D1
S3153000DDB010B4344A0B4603F0010304466401145987
S3153000DDC004F00104A34214D00B4603F001030446C9
S3153000DDD064011351BFF34F8FBFF36F8F034602EBCE
S3153000DDE043131B6903F001030C4604F00104A342FC
S3153000DDF0F4D110BC70470121DAE710B4029C01F06F
S3153000DE000F01240104F0100421430160002A00D0E0
S3153000DE10136010BC70470098002801D0019901604A
S3153000DE20704700003EB53120FFF7E5FF3220FFF79F
S3153000DE30E2FF15480068029002AA1E211348FFF738
S3153000DE408DFE002001901248009000231A460A21C8
S3153000DE501048FFF7D2FF104C104D0020019000956E
S3153000DE600346024607212046FFF7C7FF02200190EE
S3153000DE70009500231A4607212046FFF7CCFF37BD11
S3153000DE80000000000060CC4078EB003000C0C54098
S3153000DE90CC820E4088800E402C80C0406C80C040C2
S3153000DEA0020003D40901304A1154704709012F4A40
S3153000DEB000F00F00104400F8041C704710B50446FB
S3153000DEC0601EB0F1807F0CD2294908600F214FF0D7
S3153000DED0FF30FFF7E5FF0020264908600720264976
S3153000DEE00860641EB4F1807F8041C043C00F10BD0E
S3153000DEF022490868002802D00868401E086070472A
S3153000DF001E49086008680028FCD1704710B5FFF735
S3153000DF10CCF8FFF787FFFEF703FCFFF7BAF8FFF7F9
S3153000DF2045FF174800684FF47A71B0FBF1F0FFF700
S3153000DF30C5FF0028134C07D0FEE700221E211248E9
S3153000DF40FFF739FE002020704FF47A70FFF7D8FFC4
S3153000DF5020780028F1D101221E210B48FFF72BFE35
S3153000DF6001202070F0E7000000E400E018ED00E04A
S3153000DF7014E000E018E000E010E000E0900000203F
S3153000DF80000000209500002000C0C540433A5C5791
S3153000DF906F726B73706163655C7265735F636869BA
S3153000DFA0705F7274346469676974735C53444B5F31
S3153000DFB0325F31355F3030305F4D494D58525431D4
S3153000DFC03137302D45564B425C626F617264735CFB
S3153000DFD065766B626D696D787274313137305C6439
S3153000DFE0656D6F5F617070735C6C65645F626C6980
S3153000DFF06E6B795C636D375C626F6172642E630041
S3153000E000433A5C576F726B73706163655C726573AC
S3153000E0105F636869705F7274346469676974735C6E
S3153000E02053444B5F325F31355F3030305F4D494D51
S3153000E030585254313137302D45564B425C646576F3
S3153000E040696365735C4D494D585254313137365C8E
S3153000E050647269766572735C66736C5F636F6D6DDF
S3153000E0606F6E5F61726D2E6300000000433A5C573D
S3153000E0706F726B73706163655C7265735F636869D9
S3153000E080705F7274346469676974735C53444B5F50
S3153000E090325F31355F3030305F4D494D58525431F3
S3153000E0A03137302D45564B425C646576696365730E
S3153000E0B05C4D494D585254313137365C647269760D
S3153000E0C06572735C66736C5F6C70756172742E63A7
S3153000E0D000000000433A5C576F726B737061636582
S3153000E0E05C7265735F636869705F727434646967A4
S3153000E0F06974735C53444B5F325F31355F30303017
S3153000E1005F4D494D585254313137302D45564B427B
S3153000E1105C646576696365735C4D494D585254311C
S3153000E1203137365C647269766572735C66736C5FC0
S3153000E130636C6F636B2E6800433A5C576F726B7318
S3153000E140706163655C7265735F636869705F727412
S3153000E150346469676974735C53444B5F325F31353D
S3153000E1605F3030305F4D494D585254313137302D54
S3153000E17045564B425C646576696365735C4D494DC3
S3153000E180585254313137365C647269766572735CD5
S3153000E19066736C5F636C6F636B2E6800433A5C57D3
S3153000E1A06F726B73706163655C7265735F636869A8
S3153000E1B0705F7274346469676974735C53444B5F1F
S3153000E1C0325F31355F3030305F4D494D58525431C2
S3153000E1D03137302D45564B425C636F6D706F6E65CF
S3153000E1E06E74735C756172745C66736C5F61646166
S3153000E1F0707465725F6C70756172742E63000000A6
S3153000E200433A5C576F726B73706163655C726573AA
S3153000E2105F636869705F7274346469676974735C6C
S3153000E22053444B5F325F31355F3030305F4D494D4F
S3153000E230585254313137302D45564B425C646576F1
S3153000E240696365735C4D494D585254313137365C8C
S3153000E250647269766572735C66736C5F636C6F63E8
S3153000E2606B2E6800433A5C576F726B7370616365EF
S3153000E2705C7265735F636869705F72743464696712
S3153000E2806974735C53444B5F325F31355F30303085
S3153000E2905F4D494D585254313137302D45564B42EA
S3153000E2A05C646576696365735C4D494D585254318B
S3153000E2B03137365C647269766572735C66736C5F2F
S3153000E2C0636C6F636B2E6300433A5C576F726B738C
S3153000E2D0706163655C7265735F636869705F727481
S3153000E2E0346469676974735C53444B5F325F3135AC
S3153000E2F05F3030305F4D494D585254313137302DC3
S3153000E30045564B425C646576696365735C4D494D31
S3153000E310585254313137365C647269766572735C43
S3153000E32066736C5F6770696F2E63000028636F6E6B
S3153000E3306669672D3E6C6F6F704469766964657285
S3153000E340203C3D202875696E7433325F7429323033
S3153000E35038292026262028636F6E6669672D3E6C25
S3153000E3606F6F7044697669646572203E3D2028750A
S3153000E370696E7433325F74293130342900000000FD
S3153000E380756172745F636F6E6669672D3E696E7311
S3153000E39074616E6365203C202873697A656F6628E0
S3153000E3A0735F4C70756172744164617074657242EA
S3153000E3B061736529202F2073697A656F66284C5002
S3153000E3C0554152545F54797065202A29290000003E
S3153000E3D00000000000C0124000001340004013400F
S3153000E3E00080134000C013400000144000C0C540F8
S3153000E3F00000C6400040C6400080C64000C0C6404F
S3153000E4000000C7400000CA400080004200C0004201
S3153000E410696E7374616E6365203C202873697A6512
S3153000E4206F6628735F6C7075617274426173657361
S3153000E43029202F2073697A656F662828735F6C7080
S3153000E440756172744261736573295B305D29290089
S3153000E450696E7374616E6365203C202873697A65D2
S3153000E4606F6628735F6770696F42617365732920C1
S3153000E4702F2073697A656F662828735F6770696FB6
S3153000E4804261736573295B305D29290028706C6C95
S3153000E490203D3D206B434C4F434B5F506C6C417578
S3153000E4A064696F29207C7C2028706C6C203D3D206F
S3153000E4B06B434C4F434B5F506C6C566964656F29A8
S3153000E4C00000000030B4002512E050F8042BD307CA
S3153000E4D044BF4A44521E091F042942F8045BFAD24B
S3153000E4E013468C0744BF15809B1CC90748BF1D7057
S3153000E4F050F8041B0029E8D130BC704700000000FA
S3153000E50000C0074000000840004008400080084036
S3153000E51000C0084000000940004009400080094022
S3153000E52000C0094000000A400040C2400080C2409E
S3153000E53028706C6C203D3D206B434C4F434B5F50F5
S3153000E5406C6C5379733229207C7C2028706C6C205B
S3153000E5503D3D206B434C4F434B5F506C6C5379734E
S3153000E560332900000000000000C0074000000840CA
S3153000E570004008400080084000C0084000000940C4
S3153000E580004009400080094000C0094000000A40B0
S3153000E5900040C2400080C2403020213D20735F4C95
S3153000E5A070756172744164617074657242617365CD
S3153000E5B05B756172745F636F6E6669672D3E696EF7
S3153000E5C07374616E63655D00415353455254204503
S3153000E5D052524F52202220257320223A2066696CEF
S3153000E5E0652022257322204C696E652022256422FF
S3153000E5F0200A00002875696E74385F74292834291A
S3153000E600203E20636F6E6669672D3E747846696674
S3153000E6106F57617465726D61726B00002875696E33
S3153000E62074385F7429283429203E20636F6E6669FA
S3153000E630672D3E72784669666F57617465726D6193
S3153000E640726B000072B60548054901600A6882F3AC
S3153000E65008880448804762B60348004708ED00E062
S3153000E66000A0003085DC003061E7003010B5074986
S3153000E67079441831064C7C44163404E00A68081D87
S3153000E680114488470146A142F8D110BD2C00000044
S3153000E6904C0000004EF68851CEF20001086840F476
S3153000E6A070000860BFF34F8FBFF36F8F4FF001706C
S3153000E6B0E1EE100A704700000DFEFFFF94000000E7
S3153000E6C0040000200000000087CEFFFF0400000099
S3153000E6D0B00400000000002000000000FEE700004B
S3153000E6E000F00DF8002801D0FFF7C0FFAFF300802F
S3153000E6F00020AFF30080FFF709FC00F002F801209C
S3153000E700704700F001B8FEE70746384600F002F8D9
S3153000E710FBE7000080B5AFF30080024A11001820F5
S3153000E720ABBEFBE72600020073697A65203D3D20CB
S3153000E7302875696E7433325F74292831203C3C2049
S3153000E740692900003055203C20636F6E6669672D5D
S3153000E7503E62617564526174655F42707300000099
S3153000E7600548014603B4684680F30988AFF3008054
S3153000E770FFF790FFFFF7B4FFA5EDF5FE21286E6F8A
S3153000E7806E436163686553746172742025207369C2
S3153000E7907A65290066726163203C3D202875696E72
S3153000E7A074385F7429333555000000006672616332
S3153000E7B0203E3D202875696E74385F742931325594
S3153000E7C00000000066726163203E3D202875696E48
S3153000E7D07433325F742931325500000066726163DA
S3153000E7E0203C3D202875696E7433325F7429333589
S3153000E7F055000000636F756E74203C3D203078669E
S3153000E800666666666666665500000000290000008A
S3153000E8100100000000A60E0000000000000000000D
S3153000E8203020213D20756172745F636F6E66696753
S3153000E83000000000000000000000000000000101A0
S3153000E84000000000000000008A33333333333333A3
S3153000E85033333333333300008A565758595A5B5C57
S3153000E8605D5E5F6061000000FFFFFF0F000000008B
S3153000E870000000003020213D2068616E646C650028
S3153000E8803020213D20646174610000006C656E6744
S3153000E8907468203E203055006672657120213D2017
S3153000E8A030554C0070696E203C20333255000000E4
S3153000E8B03020213D20646174610000003020213D0C
S3153000E8C020636F6E666967006672657100000000CE
S3153000E8D069203E3D20350000636F6E666967000033
S3153000E8E0667265710000000000000000A60000009E
S3153000E8F06672657100000000004800477DEB00300D
S3153000E900004800477DEB0030004800477DEB003083
S3153000E910004800477DEB0030004800477DEB003073
S3153000E920004800477DEB0030004800477DEB003063
S3153000E930004800477DEB0030004800477DEB003053
S3153000E940004800477DEB0030004800477DEB003043
S3153000E950004800477DEB0030004800477DEB003033
S3153000E960004800477DEB0030004800477DEB003023
S3153000E970004800477DEB0030004800477DEB003013
S3153000E9800048004769C40030004800477DC4003065
S3153000E9900048004791C4003000480047A5C4003005
S3153000E9A000480047B9C4003000480047CDC40030A5
S3153000E9B000480047E1C4003000480047F5C4003045
S3153000E9C00048004709C50030004800471DC50030E3
S3153000E9D00048004731C50030004800474DC500307B
S3153000E9E0004800477DEB0030004800477DEB0030A3
S3153000E9F0004800477DEB0030004800477DEB003093
S3153000EA00004800477DEB0030004800477DEB003082
S3153000EA10004800477DEB0030004800477DEB003072
S3153000EA20004800477DEB0030004800477DEB003062
S3153000EA30004800477DEB0030004800477DEB003052
S3153000EA40004800477DEB0030004800477DEB003042
S3153000EA50004800477DEB0030004800477DEB003032
S3153000EA60004800477DEB0030004800477DEB003022
S3153000EA70004800477DEB0030004800477DEB003012
S3153000EA80004800477DEB0030004800477DEB003002
S3153000EA90004800477DEB0030004800477DEB0030F2
S3153000EAA0004800477DEB0030004800477DEB0030E2
S3153000EAB0004800477DEB0030004800477DEB0030D2
S3153000EAC0004800477DEB0030004800477DEB0030C2
S3153000EAD0004800477DEB0030004800477DEB0030B2
S3153000EAE0004800477DEB0030004800477DEB0030A2
S3153000EAF0004800477DEB0030004800477DEB003092
S3153000EB00004800477DEB0030004800477DEB003081
S3153000EB10004800477DEB0030004800477DEB003071
S3153000EB20004800477DEB0030004800477DEB003061
S3153000EB30004800477DEB0030004800477DEB003051
S3153000EB40004800477DEB0030004800477DEB003041
S3153000EB50004800477DEB0030004800477DEB003031
S3153000EB60004800477DEB0030004800477DEB003021
S3153000EB70004800477DEB003001000000FFF7FEBF84
S3093000EB8000A4781F20
S7053000E6459F
