S0170000696C65645F626C696E6B795F636D372E7372656321
S113200000000420596F0000E33F0000EB3F000094
S113201093400000E34500002F460000000000004C
S11320200000000000000000000000006346000003
S11320309B460000000000006F650000056800007A
S11320400972000011720000197200002172000070
S113205029720000317200003972000041720000E0
S11320604972000051720000597200006172000050
S113207069720000717200007972000081720000C0
S1132080897200008D7400008D7400008D7400004E
S11320909172000099720000A1720000A972000000
S11320A0B1720000B9720000C1720000C972000070
S11320B0D1720000D9720000E1720000E9720000E0
S11320C0F1720000F972000001730000097300004E
S11320D011730000197300002173000029730000BC
S11320E0317300003973000041730000497300002C
S11320F0517300005973000061730000697300009C
S113210071730000797300008D7400008D740000F9
S11321108D7400008D7400008D7400008D740000B7
S11321208D7400008D7400008173000089730000B9
S11321308D7400008D7400008D7400008D74000097
S11321408D7400008D7400008D7400008D74000087
S11321508D7400008D7400008D7400008D74000077
S11321608D7400008D7400008D7400009173000064
S113217099730000A1730000A9730000B1730000FB
S1132180B9730000C1730000C97300008D740000AE
S11321908D7400008D7400008D7400008D74000037
S11321A08D7400008D7400008D7400008D74000027
S11321B08D7400008D7400008D7400008D74000017
S11321C08D740000D17300008D7400008D740000C4
S11321D08D7400008D7400008D7400008D740000F7
S11321E08D7400008D7400008D7400008D740000E7
S11321F08D7400008D740000D9730000E173000039
S11322008D7400008D7400008D7400008D740000C6
S11322108D7400008D7400008D7400008D740000B6
S11322208D7400008D7400008D7400008D740000A6
S11322308D7400008D7400008D7400008D74000096
S11322408D7400008D740000E9730000F1730000C8
S11322508D740000F9730000017400008D74000097
S11322608D740000097400001174000019740000DA
S11322702174000029740000317400008D74000082
S11322808D7400008D7400008D7400008D74000046
S11322908D7400008D7400008D7400008D74000036
S11322A08D7400008D7400008D7400008D74000026
S11322B08D7400008D7400008D7400008D74000016
S11322C08D7400008D7400008D7400008D74000006
S11322D08D7400008D7400008D7400008D740000F6
S11322E08D7400008D7400008D7400008D740000E6
S11322F08D7400008D7400008D7400008D740000D6
S11323008D7400008D7400008D7400008D740000C5
S11323108D7400008D7400008D7400008D740000B5
S11323208D7400008D7400008D7400008D740000A5
S11323308D7400008D7400008D7400008D74000095
S11323408D7400008D7400008D7400008D74000085
S11323508D7400008D7400008D7400008D74000075
S11323603974000041740000497400005174000085
S11323708D7400008D7400008D7400008D74000055
S11323808D7400008D7400005974000061740000A5
S113239069740000717400008D7400008D74000075
S11323A079740000817400008D7400008D74000045
S11323B08D7400008D7400008D7400008D74000015
S11323C08D7400008D7400008D7400008D74000005
S11323D08D7400008D7400008D7400008D740000F5
S11323E08D7400008D7400008D7400008D740000E5
S11323F08D7400008D7400008D740000FFFFFFFFDA
S1132400DFF86C28C0B2802148431058C0F3022082
S11324107047DFF85C28C0B280214843105800F0B0
S1132420FF00401C704770B505002800C0B2FFF7DC
S1132430E7FF0600DFF80C082900C9B200EBC10071
S1132440805D00F0D3FD04002800C0B2FFF7E1FF77
S1132450B4FBF0F4002C09D140F6C502DFF80C18E7
S1132460DFF8100800F0BAFEAFF30080200070BD62
S113247080B50020FFF7D7FF02BD70B50400606887
S1132480D12802D26068682808D27922DFF8E817D8
S1132490DFF8E80700F0A2FEAFF30080DFF8E067A2
S11324A0306880041FD5306800F0FF00217901F006
S11324B0FF01884217D1306810F4C0302178C90375
S11324C011F4C03188420ED13068400403D430681E
S11324D050F4804030603068400003D5306830F0FC
S11324E08040306033E0DFF89C0700F08BFE3568F5
S11324F035F0005515F4C04F04D035F4C04555F0FF
S113250080453560DFF880070540207900F0FF0042
S113251005432078C00310F4C030054345F08045DE
S113252055F440553560BFF34F8FBFF36F8FDFF81D
S113253064171E2000F088FF35F4006535603068AC
S11325408000FCD555F4804535F08045356070BD7C
S1132550F8B50400DFF834572868000226D5002CAB
S113256015D0DFF82C170868000402D4207A00285C
S11325700DD0207A62681288120452EAC032606870
S113258040884004400C0243086882420ED1286807
S1132590800403D4286850F4005028602868400060
S11325A003D5286830F08040286058E0DFF8D4066E
S11325B000F028FEDFF89807016871F07F310160B0
S11325C02E68DFF8D406064205D0DFF8D0060640B0
S11325D056F080462E60002C16D0207A002813D0A6
S11325E06068002810D0206820F04040DFF8B01662
S11325F00860606800886168498851EA004151F4C4
S11326000041DFF88C060160DFF89806064046F0CA
S1132610804656F008062E60DFF8787639001E20D2
S113262000F012FF36F4000646F4000656F4006685
S11326302E603900FA2000F007FF36F400662E60A1
S113264028688000FCD556F400562E6036F080468B
S11326502E60DFF8FC06016831F080310160F1BDC5
S11326602DE9F84304000D00160000275FF0000870
S11326703000C0B2242809DB4FF49D72DFF8F8154E
S1132680DFF8D00600F0AAFDAFF300803000C0B23E
S11326900C2809DA40F23B12DFF8DC15DFF8B80643
S11326A000F09CFDAFF30080200040B2022802D06D
S11326B0032807D00DE0DFF898060700DFF8C0060E
S11326C080460FE0DFF8BC060700DFF8BC06804652
S11326D008E040F24912DFF8A01590A000F07EFD5A
S11326E0AFF300805FF03F0E3868EDB2E9001EFAE8
S11326F001F10140EDB2E800C14080223868EDB23A
S1132700EB0012FA03F318400823EB40D8400028EA
S113271001D0012300E000233000C0B2814203D184
S11327201800C0B2002849D05FF040093868EDB203
S11327305FEAC50C19FA0CFC1CEA0000009038682A
S1132740EDB25FEAC50C12FA0CFC5CEA00003860DA
S1132750D7F800C0EDB2E8001EFA00FE3CEA0E0E07
S1132760C7F800E0D7F800C0B6465FFA8EFE1EF048
S11327703F0EEDB2E8001EFA00FE5EEA0C0CC7F84C
S113278000C0D8F800005FF0020C1CFA05FC9CEABB
S11327900000C8F80000D7F800C0EDB2E80082409D
S11327A03CEA02023A6000983A68EDB25FEAC50C6E
S11327B019FA0CFC1CEA02029042F4D0BDE8F18341
S11327C0F8B505000E0000270024280040B20228B6
S11327D00DD0280040B2032809D040F28B12DFF854
S11327E09814DFF8140600F0F9FCAFF30080280019
S11327F040B2022802D003280DD019E0DFF85005BA
S113280001683F22F6B2F000824011400C00DFF86C
S1132810EC05070015E0DFF86C0501683F22F6B20D
S1132820F000824011400C00DFF81006070008E0B9
S113283040F29B12DFF8401438A000F0CFFCAFF355
S11328400080F6B2F000C4400C2C09D24FF4D072D0
S1132850DFF82414DFF8E80500F0C0FCAFF30080D3
S1132860242C09D340F2A112DFF80C14DFF8D405AC
S113287000F0B4FCAFF30080002C05D0B7FBF4F1FA
S1132880122000FB01F000E00020F2BD38B5DFF8B3
S1132890B845206880020ED52068800403D42068DF
S11328A050F4005020602068400003D5206830F0C8
S11328B08040206030E0DFF8CC0300F0A3FCDFF8B8
S11328C0C404016871F07F310160206840F08040E9
S11328D050F010002060DFF8BC5329001E2000F0E7
S11328E0B3FD206840F4001050F40060206029001B
S11328F01E2000F0A9FD206830F4006020602068EC
S11329008000FCD5206840F4005050F0080020609E
S1132910206830F08040206031BD000030000000AD
S113292038B504000D00200040B2002808D0022869
S11329301FD018D3042842D02ED3052845D04AE00E
S11329402800C0B2002805D0DFF83403006850F432
S1132950003004E0DFF82803006830F40030DFF8CA
S11329602013086040E02900C9B2012000F057F8A4
S11329703AE02800C0B2002805D0DFF81003006850
S113298050F4803004E0DFF80403006830F4803051
S1132990DFF8F812086027E02800C0B2002805D04C
S11329A0DFF8A404006850F4803004E0DFF89804F1
S11329B0006830F48030DFF89014086014E02900D7
S11329C0C9B2022000F02BF80EE02900C9B203209E
S11329D000F025F808E040F22322DFF89C1234A02E
S11329E000F0FCFBAFF3008031BD38B504000D00EE
S11329F02800C0B2002802D04FF4005200E00022A8
S1132A002800C0B2002801D0042100E0082152F4BB
S1132A108042C9B22000C0B200F0CEFF31BD38B54B
S1132A2004000D002800C0B2002801D0042100E0F9
S1132A3008215FF48032C9B22000C0B200F0BCFFAC
S1132A4031BD38B504000D002800C0B2002801D003
S1132A50042100E008215FF48002C9B22000C0B262
S1132A6000F0AAFF31BD38B504000D002800C0B243
S1132A70002801D0042100E008214FF40052C9B21B
S1132A802000C0B200F098FF31BD38B504000D003D
S1132A9001212000C0B2FFF7E6FFDFF8F81128009B
S1132AA000F0D2FC00212000C0B2FFF7DCFF31BDF2
S1132AB03000000038B504000D002800C0B2002822
S1132AC001D0042100E008214FF40042C9B22000E3
S1132AD0C0B200F071FF31BD38B504000D0028000C
S1132AE0C0B2002801D0042100E008214FF40042C4
S1132AF0C9B22000C0B200F05FFF31BD2DE9F84338
S1132B0005000E0017009846DDF82090099C280067
S1132B10C0B2012804D000212800C0B2FFF765FF2D
S1132B20002C0AD06288208852EA004252F4004203
S1132B3010212800C0B200F03FFF4A46302128008F
S1132B40C0B200F039FF3A0020212800C0B200F0E2
S1132B5033FF002000907F233200D2B200212800EE
S1132B60C0B200F042FF2800C0B201280AD01920E8
S1132B7000905FF060634246D2B200212800C0B2E8
S1132B8000F033FF01212800C0B2FFF75AFFDFF83D
S1132B900411642000F058FC01212800C0B2FFF7A2
S1132BA024FFBDE8F1830100C9B2002906D1DFF892
S1132BB038140A6832F480420A6005E0DFF8281409
S1132BC00A6852F480420A6070470100C9B20029C1
S1132BD006D1DFF814140A6832F400520A6005E0E2
S1132BE0DFF804140A6852F400520A60704780B592
S1132BF00020FFF7EAFF0120FFF7D5FF00210220A4
S1132C00FFF76AFF00210220FFF7EFFE00210220F8
S1132C10FFF750FF00210220FFF713FF01BD010061
S1132C20C9B2002906D1DFF874150A6832F480426B
S1132C300A6005E0DFF864150A6852F480420A600D
S1132C4070470000E86000000100C9B2002906D105
S1132C50DFF848150A6832F400520A6005E0DFF82C
S1132C603C150A6852F400520A607047146B000065
S1132C700000CC4000720000786B0000406C000043
S1132C800042C8400040C840007FFEFF4042C840A8
S1132C906042C84000CA9A3B00208000FFDF7FFFEB
S1132CA0A042C840F7FFFFBFFEB504000026DFF8CE
S1132CB0F40400F0A7FADFF8E4743D6815F020206E
S1132CC0B0F1202F01D10120060001210320FFF7DC
S1132CD0A6FE3000C0B2002811D00020FFF7B4FFD8
S1132CE00120FFF79CFF00210320FFF7F5FE0021E0
S1132CF00320FFF77AFE00210320FFF7A2FE012044
S1132D00FFF7A2FF207C002804D0E068002801D04F
S1132D10E06800E000200190A06800906378626899
S1132D2021780320FFF7EAFEE1210320FFF7ADFE3F
S1132D3038680500A800FBD501210320FFF7CCFE6D
S1132D400020FFF76CFF00210320FFF768FEF7BDAA
S1132D507042C840A4700000BC7000000100C9B2F9
S1132D60002906D1DFF840140A6832F480420A6070
S1132D7005E0DFF834140A6852F480420A607047B0
S1132D805042C8403042C8402042C8400100C9B245
S1132D90002906D1DFF810140A6832F000720A60C4
S1132DA005E0DFF804140A6852F000720A60704704
S1132DB00100C9B2002906D1DFF8EC130A6832F029
S1132DC080620A6005E0DFF8E0130A6852F080626E
S1132DD00A6070470100C9B2002906D1DFF8C813A0
S1132DE00A6832F400520A6005E0DFF8BC130A688E
S1132DF052F400520A607047446E000000A4781F29
S1132E0080B50020FFF7E6FF0020FFF7BFFF00209A
S1132E10FFF7CEFF0120FFF7A1FF00210120FFF7FC
S1132E205BFE00210120FFF7E0FD00210120FFF7F8
S1132E3041FE00210120FFF704FE01BD00389C1C67
S1132E40D4700000EC7000001042C84038B5040093
S1132E503021042000F0BDFD050035F4A0652000FC
S1132E60C0B2002802D155F4807505E02000C0B23C
S1132E70012801D155F480652A003021042000F096
S1132E809BFD31BD70B52DED048B040000252000A1
S1132E9040B204280DD0200040B2052809D040F2E9
S1132EA07D52DFF8FC12DFF8040300F097F9AFF36A
S1132EB00080200040B2042801D1022000E0032059
S1132EC00021C0B200F085FDC0F3426610F07F001F
S1132ED009EE100A200040B2042801D1022000E0CB
S1132EE003203021C0B200F074FD00EE100AB8EEE9
S1132EF0408B200040B2042801D1022000E00320CE
S1132F002021C0B200F065FD00EE100AB8EE400BBF
S1132F10B8EE491B80EE082B31EE021B9FED953B6A
S1132F2021EE031B0120B04002EE100AB8EE422B42
S1132F3081EE021BBCEEC12B12EE100ABDEC048B19
S1132F4070BDF8B505000024280040B2002808D060
S1132F50022822D01DD3042827D022D3052829D023
S1132F602DE0DFF84C02016801F0FF010E0000685B
S1132F70C0F3C130032801D1012702E00127401C1E
S1132F808740DFF830027900B0FBF1F070430400B1
S1132F901DE0DFF82402040019E0DFF82002040039
S1132FA015E0DFF81C02040011E00420FFF76AFFBB
S1132FB004000CE00520FFF765FF040007E040F281
S1132FC0CE52774974A000F009F9AFF30080002CC9
S1132FD008D140F2D1527249DFF8E80100F0FEF85E
S1132FE0AFF300802000F2BD0043C84038B50500AF
S1132FF000242800C0B200282DD0022833D02ED3BC
S1133000042838D033D3062839D034D308283BD009
S113301035D30A283DD037D30C2846D03FD30E28C9
S11330204FD048D3102851D04BD312285AD053D361
S1133030142863D05CD3162866D065D318286ED0C4
S113304067D31A2873D072D31C2875D074D31E2862
S113305077D076D379E0DFF8700104007DE0DFF803
S11330606C01040079E0DFF84C01040075E0DFF83E
S11330706001040071E0DFF83C0104006DE0002011
S1133080FFF75FFF040068E00220FFF75AFF040027
S113309063E000210220FFF793FB04005DE00121BF
S11330A00220FFF78DFB040057E002210220FFF706
S11330B087FB040051E003210220FFF781FB040099
S11330C04BE00320FFF73DFF040046E00320FFF739
S11330D038FF4008040040E000210320FFF770FBA4
S11330E004003AE001210320FFF76AFB040034E006
S11330F002210320FFF764FB04002EE003210320D8
S1133100FFF75EFB040028E00120FFF71AFF04002C
S113311023E00120FFF715FF400804001DE0012013
S1133120FFF70FFF0521B0FBF1F0040015E00420C8
S1133130FFF707FF040010E00520FFF702FF04007B
S11331400BE0FFF795F9040007E040F23D621449F3
S113315011A000F043F8AFF30080002C08D14FF425
S1133160C8620F49DFF85C0000F038F8AFF3008064
S1133170200032BD0000000060E37641DFF8540017
S11331800168490849000160DFF84C00016851F00A
S11331900101016070470000300000005043C84046
S11331A0786B00000040C840C042C840A06D0000D9
S11331B00042C84000366E0100CA9A3B00A4781F42
S11331C000389C1CA87100000024F400006CDC0290
S11331D00084D7175040C8406040C84070B5040010
S11331E00D00160033002A002100054800F0E1FC20
S11331F032002900200000F015FD00BEFDE700BFED
S1133200DC6E000038B504000021002000F0E1FB72
S1133210050040F20110854218D040F20512002149
S1133220002000F0C9FBDFF80412642000F00CF960
S113323002200090042300220021002000F0D5FB8E
S1133240D4F8700550F01000C4F8700531BD70B5A5
S113325004000D002800C0B200281ED1D4F81005C7
S113326030F00500C4F81005DFF8C06131004FF4F8
S11332707A7000F0E9F8D4F8100530F02000C4F8B2
S1133280100531004FF47A7000F0DEF8D4F8100520
S113329030F40020C4F8100528E0D4F810054008E4
S11332A04000C4F81005DFF8846131004FF47A70EF
S11332B000F0CAF8D4F8100550F40020C4F8100542
S11332C031004FF47A7000F0BFF8D4F8100550F0D4
S11332D02000C4F8100531004FF47A7000F0B4F8FF
S11332E0D4F8100550F00400C4F8100570BD70B592
S11332F004000D002800C0B200281ED0D4F8300508
S113330050F40030C4F83005DFF8206131004FF488
S11333107A7000F099F8D4F8300550F48020C4F89D
S1133320300531004FF47A7000F08EF8D4F830058F
S113333030F00400C4F830051DE0D4F8300550F036
S11333400400C4F83005DFF8E46031004FF47A700B
S113335000F07AF8D4F8300530F48020C4F8300551
S113336031004FF47A7000F06FF8D4F8300530F47F
S11333700030C4F8300570BD30B41300DBB2002B4C
S11333804CD00B00DBB2002B03D0022B2FD018D370
S113339043E0D0F85055264B1D40264B1D43C0F842
S11333A05055D0F8603533F4E05343F0807353F450
S11333B080631C00C0F86045D0F860355B01FBD524
S11333C032E0D0F850359B089B00C0F85035D0F857
S11333D0605535F4E05545F0807555F400652C00D2
S11333E0C0F86045D0F860355B01FBD51CE0D0F82F
S11333F050359B089B00C0F85035D0F8605535F423
S1133400E05545F0807555F480552C00C0F86045B2
S1133410D0F860355B01FBD506E005E0D0F86055D7
S1133420054B1D40C0F8605530BC704700CA9A3B3C
S113343000E0FF0002100011FFE3FFFE0100084658
S1133440401E0028FCD170472DE9F8438046894688
S1133450B8F1000F26D0A9FB0801144A002300F09C
S1133460F9FB06000F00002001218F4209D301D887
S1133470864206D3D5220C490D48FFF7AFFEAFF3C1
S11334800080300039000322002300F0E3FB022215
S11334900023A2FB004502FB015503FB005520005D
S11334A0FFF7CCFFBDE8F1831469000040420F0030
S11334B0047100002DE9F04304002000C0B200288C
S11334C00ED0022800F0AD8051D3042800F06581AD
S11334D0C0F00581062800F0FC81C0F0B7813BE212
S11334E00800C0B2002820D0DFF874E4DEF8000041
S11334F030F48030CEF80000DEF800C05FEA1C2C07
S11335005FEA0C2C1000C0B250EA0C0C6546CEF8F1
S11335100050DFF850040360DFF84C04D0F800C01A
S11335209CF4803CC0F800C016E2DFF83484D8F87C
S113353000C03CF4803C5CF4803CC8F800C0D8F87F
S113354000E05FEA1E2E5FEA0E2E1000C0B250EAC1
S11335500E0EC8F800E0DFF81004D0F8008098F4EC
S11335608038C0F80080DFF804040068F5E1080042
S1133570C0B200282AD0DFF8F8E3DEF8000010F427
S113358000700600DEF8000030F48030CEF8000051
S1133590DEF800C05FEA1C2C5FEA0C2C1000C0B2FD
S11335A050EA0C0C6546CEF80050DFF8C8030360FF
S11335B0DEF8000090F48070CEF80000DEF8000021
S11335C010F400700700B742F8D029E0DFF8A093A8
S11335D0D9F800E01EF4007ED9F8008038F4803871
S11335E058F48038C9F80080D9F800C05FEA1C2C70
S11335F05FEA0C2C1000C0B250EA0C0CC9F800C0F1
S1133600D9F8000090F48070C9F80000D9F80000DF
S113361010F4007007007745F8D0D74800689CE1A3
S11336209AE10800C0B200282FD0DFF850E3DEF89A
S1133630000010F400700600DEF8000030F4803062
S1133640CEF80000DEF800C05FEA1C2C5FEA0C2C08
S11336501000C0B250EA0C0C6546CEF80050C848C1
S11336600360DEF8000090F48070CEF80000DEF80D
S1133670000010F400700700B742F8D0DEF8000034
S113368030F48030CEF8000066E1DFF8F092D9F82B
S113369000E01EF4007ED9F8008038F4803858F435
S11336A08038C9F80080D9F800C05FEA1C2C5FEAB2
S11336B00C2C1000C0B250EA0C0CC9F800C0D9F8A8
S11336C0000090F48070C9F80000D9F8000010F4EC
S11336D0007007007745F8D0AA4800683DE108006B
S11336E0C0B200282FD0DFF8A0E2DEF8000010F40A
S11336F000700600DEF8000030F48030CEF80000E0
S1133700DEF800C05FEA1C2C5FEA0C2C1000C0B28B
S113371050EA0C0C6546CEF800509C480360DEF875
S1133720000090F48070CEF80000DEF8000010F481
S113373000700700B742F8D0DEF8000030F48030A3
S1133740CEF8000008E1DFF84092D9F800E01EF45A
S1133750007ED9F8008038F4803858F48038C9F8ED
S11337600080D9F800C05FEA1C2C5FEA0C2C100022
S1133770C0B250EA0C0CC9F800C0D9F8000090F4AB
S11337808070C9F80000D9F8000010F40070070038
S11337907745F8D07E480068DFE00800C0B2002812
S11337A029D0DFF8F0E1DEF8000010F40070060024
S11337B0DEF8000030F48030CEF80000DEF800C0FF
S11337C05FEA1C2C5FEA0C2C1000C0B250EA0C0C0F
S11337D06546CEF8005070480360DEF8000090F4AF
S11337E08070CEF80000DEF8000010F400700700CE
S11337F0B742F8D029E0DFF89C91D9F800E01EF434
S1133800007ED9F8008038F4803858F48038C9F83C
S11338100080D9F800C05FEA1C2C5FEA0C2C100071
S1133820C0B250EA0C0CC9F800C0D9F8000090F4FA
S11338308070C9F80000D9F8000010F40070070087
S11338407745F8D05548006887E085E00800C0B2A5
S113385000281ED0DFF848E1DEF8000030F48030A4
S1133860CEF80000DEF800C05FEA1C2C5FEA0C2CE6
S11338701000C0B250EA0C0C6546CEF8005049481E
S113388003604948D0F800C09CF4004CC0F800C064
S113389062E0DFF80C81D8F800C03CF4803C5CF4B2
S11338A0803CC8F800C0D8F800E05FEA1E2E5FEA4A
S11338B00E2E1000C0B250EA0E0EC8F800E03A48CE
S11338C0D0F8008098F40048C0F8008037480068B9
S11338D043E00800C0B200281ED0DFF8C4E0DEF8E0
S11338E0000030F48030CEF80000DEF800C05FEA5B
S11338F01C2C5FEA0C2C1000C0B250EA0C0C65467C
S1133900CEF80050274803602948D0F800C09CF046
S1133910010CC0F800C01FE0DFF88480D8F800C0B4
S11339203CF4803C5CF4803CC8F800C0D8F800E06B
S11339305FEA1E2E5FEA0E2E1000C0B250EA0E0E91
S1133940C8F800E01A48D0F8008098F00108C0F8E0
S113395000801848006800E00020BDE8F083000003
S11339602048C8403048C8400045C8404048C84086
S11339705048C8406048C8407048C8408048C84063
S11339809048C840A048C840B048C840C048C84053
S1133990D048C8402049C8403049C8404049C84080
S11339A0E048C840F048C8400044C8401049C840F6
S11339B07045C8400049C84070B504000D001600A9
S11339C033002A00D2B201212000C0B2FFF772FDF9
S11339D070BD38B504000D0000232A00D2B20021C6
S11339E02000C0B2FFF766FD32BD2DE9F8430400A4
S11339F00D0016001F00DDF820802900C9B2200048
S1133A00C0B2FFF7E6FF814639EA070916FA08F063
S1133A10384050EA09094A462900C9B22000C0B218
S1133A20FFF7CAFFBDE8F18338B504000D00002C90
S1133A30FDD0002D01D1002012E0DFF8D80100688C
S1133A40002801D100200BE02A002100DFF8C0018A
S1133A5000F0BDFA00B2002801D05FF0FF35280065
S1133A6032BD2DE9F04104000D0016001F000020B6
S1133A705FF00008B84511DA2868401C802805D397
S1133A8029682000FFF7D0FF00202860286826540A
S1133A902868401C286018F10108EBE7BDE8F081B4
S1133AA02DE9F14F8AB00C0015001E006846102164
S1133AB000F098FA002704A85749142200F0A6FA47
S1133AC0049605949DF828008DF81E008DF8085082
S1133AD048F64170ADF80A002800C0B2012802D1AE
S1133AE004A8039022E02800C0B2022803D143F2C4
S1133AF0215007001AE02800C0B2032803D143F282
S1133B002150070012E02800C0B2042803D143F278
S1133B10215007000AE02800C0B2092803D143F26B
S1133B202150070002E043F221500700380043F21D
S1133B30215100B2884237D05FF020095FF0000ABB
S1133B40DFF8D880C34652464946584600F0A2FAE8
S1133B5018F10400C8F800006946D8F8000000F025
S1133B60C6F98046404600B20028FBD127480078B9
S1133B702A4810F11801006800F0DEF98146484631
S1133B8000B20028FBD1DFF8948018F11C01D8F8AA
S1133B90000000F0F2F90700380000B20028FBD161
S1133BA0D8F800001B4908603FB238000BB0BDE8EC
S1133BB0F08F0EB478B50400002605AD290020006E
S1133BC000F003F872BC5DF810FB2DE9F041A0B0E1
S1133BD004000D000026002780210022E84640460C
S1133BE000F058FA0B48006800280BD00C4B6A46CA
S1133BF02900200000F0D6FB060031006846FFF7DC
S1133C0013FF0700380020B0BDE8F08194000020C5
S1133C101C00002024000020447100000400002047
S1133C20633A00000300002070470EE00268436816
S1133C30024408305FEAC37C44BF4B445B1E52F825
S1133C4004CB43F804CB091FF9D150F8041B002915
S1133C50ECD17047BBBBE1B1B2F5803F80F07E8010
S1133C60022A1ED98C46B1FBF2F102FB11C31B04DC
S1133C7043EA1043B3FBF2FC02FB1C3380B240EA7C
S1133C800343B3FBF2F002FB103240EA0C40002382
S1133C907047022A05D98446B0FBF2F002FB10C239
S1133CA070474AB105D100F0010249085FEA3000CB
S1133CB0704700220023704700F094BC0B00020000
S1133CC0002100207047904271EB030CF6D3B3F54A
S1133CD0803F2FD2F0B5B3FA83F7B1FA81F4A7F19C
S1133CE00F0E3D1B5340CEF1200602FA0EF2F341B3
S1133CF05340B5F10F0746D80F3C2C444140C4F162
S1133D002006A040F1414140B1FBF3F603FB16113C
S1133D10A2FB0645001BA94102D2761E8018594118
S1133D2080EA010221FA0EF362FA0EF200215A40EF
S1133D303046F0BD30B4B1FBF3FC03FB1C11A2FB15
S1133D400C45001BA94103D2ACF1010C8018594168
S1133D5030BC02460B46604600217047B2F1807FBA
S1133D6065D3F0B5B2FA82F7B1FA81F4C7F10F0660
S1133D703D1B22FA06F307F1110EF24120355A4099
S1133D80B5F10F07B8D94140C4F12006A040F14174
S1133D904140B1FBF3FC03FB1C11A2FB0C45001BCF
S1133DA0A94103D2BCF1010C801859410F2F12D341
S1133DB00F3FC90341EA5041B1FBF3F603FB16116F
S1133DC0A2FB0645D4EBC030A94102D2761E80186E
S1133DD0594146EACC3C07B34140C7F12006B840FC
S1133DE0F1414140B1FBF3F603FB1611A2FB06457A
S1133DF0001BA94102D2761E8018594180EA0102B3
S1133E0021FA0EF3C7F1200462FA0EF20CFA07F05D
S1133E105A402CFA04F13043F0BD80EA010221FA41
S1133E200EF3002162FA0EF260465A40F0BD8C4651
S1133E30B1FBF2F102FB11C31B0243EA1063B3FBB3
S1133E40F2FC02FB1C331B024CEA002043EA106321
S1133E50B3FBF2FC02FB1C331B024CEA002043EAD6
S1133E601063B3FBF2FC02FB1C331B024CEA002080
S1133E7043EA1063B3FBF2FC02FB1C324CEA002061
S1133E8000237047EFF3108072B6704780F31088F8
S1133E9070472DE9F04104000D0016001F0043F2A5
S1133EA021582078012806D13A00310014F10C0081
S1133EB000F0ACFB8046404600B2BDE8F0812DE93D
S1133EC0F04104000D001600002CFDD0002DFDD0A3
S1133ED0002EFDD0A046D8F80070002FFDD033008E
S1133EE02A0041463800FFF7D4FFBDE8F0812DE9F0
S1133EF0F04704000D0043F22157002DFDD0002CA3
S1133F00FDD026005FF014085FF00009B2464A466F
S1133F104146504600F0BEF8287A3070287A0128CD
S1133F2006D1E96816F10C0000F05DFB0700FFE71D
S1133F30380000B2BDE8F0872DE9F84F04000D0009
S1133F40002CFDD0002DFDD026002F00FFF79AFF96
S1133F508046B068401CB0604046FFF797FF5FF0B2
S1133F6004095FF0000AAB4652464946584600F041
S1133F7091F83E600020BDE8F28F2DE9F84F04006F
S1133F800D000027002CFDD0002DFDD0260000954B
S1133F90FFF778FF80467068002803D043F2225070
S1133FA007000DE0009870605FF004095FF0000AFC
S1133FB0AB4652464946584600F06CF800980660F5
S1133FC04046FFF763FF380000B2BDE8F28F70B5DA
S1133FD004000D001600320029002000FFF76FFFD7
S1133FE070BDFEE7002200F023BBFEE762B38B073F
S1133FF008D0521E11F8013B00F8013B00F0248068
S11340008B07F6D1830740F0208000BF103A07D316
S113401030B4B1E83810103AA0E83810F9D230BC06
S1134020530724BFB1E80810A0E8081044BF51F8B2
S1134030043B40F8043BD20724BF31F8022B20F89C
S1134040022B44BF0B7803707047121F17D35B0019
S113405009D151F8043B20F8023B1B0C121F20F835
S1134060023BF6D20BE051F8043B00F8013B1B0A7B
S113407020F8023B1B0C121F00F8013BF3D238BF9F
S1134080121D521E24BF11F8013B00F8013BF8D861
S11340907047FEE762F30F2262F31F42401810F0EC
S11340A0030308D0C91A1FD3DB0748BF00F8012D4A
S11340B028BF20F8022D130030B4144615461039D9
S11340C028BF20E93C00FAD8490728BF20E90C00A2
S11340D048BF40F8042D890028BF20F8022D48BFAE
S11340E000F8012D30BC7047C91818BF00F8012D25
S11340F0CB0728BF00F8012D704730B4030000201F
S113410000252A00D2B2002A19D11A68521C1A605A
S11341101A68127814002200D2B2302A09DB220075
S1134120D2B23A2A05DA0A22504350FA84F03038DF
S1134130E7E71A68521E1A6001221500E1E730BC55
S11341407047F0B403001C6806200025641C267820
S11341502E2E1BD100263000002635002E00F6B28C
S1134160002E14D1641C26783700FFB2302F09DBEF
S11341703700FFB23A2F05DA0A27F6B207FB0060D0
S11341803038EBE7641E01273D00E7E7641E1C603E
S1134190F0BC7047010000200A00D2B26F2A0BD095
S11341A00A00D2B2622A07D00A00D2B2702A03D01F
S11341B00A00D2B2752A01D1012210007047010011
S11341C000200A00D2B2642A03D00A00D2B2692ABB
S11341D001D10122100070472DE9F84F04000D00B1
S11341E016001F00DDF82880DDF82C90DDF830A0E3
S11341F0DDF834B0AB1B202259465046C84798F826
S11342000000002808D0012398F8002059465046A1
S1134210C847B8F10108F2E7BDE8F18F2DE9F84F7E
S113422004000D0016001F00DDF82880DDF82C9036
S1134230DDF830A0DDF834B0AB1B202259465046DF
S1134240C84798F80000002808D0012398F80020F7
S113425059465046C847B8F10108F2E7BDE8F18F66
S1134260010000200A00D2B2662A03D00A00D2B2AA
S1134270462A01D1012210007047010000200A00E3
S1134280D2B2782A03D00A00D2B2582A01D101222C
S1134290100070470168491C0B781A001300DBB248
S11342A0682BF8D01300DBB26C2BF4D0491E0160EC
S11342B0704701000800C0B26F2801D108200CE04B
S11342C00800C0B2622801D1022006E00800C0B292
S11342D0702801D1102000E00A20C0B270472DE9F7
S11342E0F64F05000B9A0020290000240C7011F1F0
S11342F0010C00265FF0000E5FF000085FF000097B
S11343005FF0000B002700245FF0000A00990968A1
S1134310002905D15FF0300B8CF800B0401C1DE083
S113432000291BD0B1FBF3FB5F4603FB171BBBF15A
S11343300A0F02D25C46303409E01400E4B2002CC7
S113434001D0412400E0612414EB0B040A3C390041
S11343508CF800401CF1010C401CE1E7BDE8F68F2D
S11343600A680A600A6812680B681B1D0B60026009
S113437070470A680A600A6812680B681B1D0B60A4
S1134380026070470A680A600A6812680B681B1D9D
S11343900B600260704738B504000025200000F06F
S11343A061F932BD2DE9F34F97B015001E005FF09F
S11343B000085FF00009002006900020099000200A
S11343C007901798059005980078002801D1069861
S11343D004E10598007807003800C0B2252809D008
S11343E001233A00D2B206A92800B0470598401C20
S11343F00590E8E701208DF8100018A905A8FFF73B
S11344007CFE0890002218A905A8FFF79AFE0C90DC
S113441005A8FFF73FFF0598401C05900598007814
S113442007003800C0B2FFF7CAFE01281DD118A941
S11344300AA8FFF795FF9DF8100000900A230122B7
S11344400AA90DA8FFF74BFF81460DA848448046F2
S113445006A8039002950196CDF8008000234A46F1
S113446008990020FFF7B8FEB4E03800C0B2FFF7A7
S1134470F7FE01280BD11898C01D30F007001890E2
S1134480189890ED000B189808301890A2E03800A6
S1134490C0B2FFF7F2FE012825D13800C0B2782857
S11344A002D100208DF8100018A907A8FFF761FFBA
S11344B09DF8100000901023002207A90DA8FFF713
S11344C00EFF81460DA84844804606A80390029535
S11344D00196CDF800809DF810304A4608990020D6
S11344E0FFF79CFE76E03800C0B2FFF753FE0128C8
S11344F037D13800C0B2702810D1189800681899C4
S1134500091D1891009004200190EA460DF11C0B3E
S1134510019A51465846FFF769FD03E018A907A818
S1134520FFF730FF3800C0B2FFF7C3FE09909DF8D3
S113453010000090099B002207A90DA8FFF7CFFEE9
S113454081460DA84844804606A80390029501962A
S1134550CDF8008000234A4608990020FFF73CFE6E
S113456038E03800C0B263280DD118980068189953
S1134570091D18910B9001230B980200D2B206A9D1
S11345802800B04726E03800C0B273281CD1189820
S113459000681899091D18910400002C1AD02000F5
S11345A0FFF7F9FE8146089BB3EB0903202206A915
S11345B02800B047207800280CD00123227806A9CF
S11345C02800B047641CF5E701233A00D2B206A9DB
S11345D02800B0470598401C0590F4E619B0BDE8E2
S11345E0F08FFEE77047F8B504000D000027002D9A
S11345F0FDD0002CFDD026002900300000F0B8F8D2
S1134600010009B20029FBD100B2F2BDF8B50400E3
S11346100D001600002CFDD0002DFDD0002EFDD085
S1134620270032002900380000F0DFF8F2BDFEE771
S113463000B500BF130096469446103928BFA0E881
S11346400C50FAD85FEA417C28BF0CC048BF40F840
S1134650042BC90728BF20F8022B48BF00F8012B00
S113466000BDFEE700F10103810704D010F8011B2F
S1134670820781B1FAD10268A2F10131914311F0AC
S1134680803104BF50F8042FF6E709BAB1FA81F17A
S113469000EBD100401CC01A7047FEE7010000295E
S11346A001D1002001E042F6AF7000B27047F0B5CE
S11346B085B005000E000027684600F05BFA7068BC
S11346C00090307A8DF80400707A8DF80700B07A83
S11346D0002801D0012000E000208DF81100F07ABC
S11346E0002801D0012000E000208DF81000F07BAC
S11346F0002808D0F07B042801DAF07B00E00420D5
S1134700401E8DF80800307C002808D0307C042836
S113471001DA307C00E00420401E8DF80900307B73
S1134720002801D0012000E000208DF80A00707BF1
S1134730002801D0012000E000208DF80B000120AA
S11347408DF80E0001208DF80F00326869463D484F
S1134750B37B50F8230000F0DCF80400002C03D0F5
S11347602000FFF79BFF0700380000B205B0F0BD42
S113477070B504000D00002C07D140F2BA22324972
S11347803248FEF72BFDAFF30080002D07D140F235
S1134790BB222D492E48FEF721FDAFF30080A87BF4
S11347A00D2807D34FF42F7227492A48FEF716FD28
S11347B0AFF300802348A97B50F82100002807D1DB
S11347C040F2BD2220492448FEF708FDAFF30080E3
S11347D029002000FFF76BFF010009B2002902D174
S11347E02600A97B317000B270BDF8B504000D003D
S11347F01600002C07D140F2193213491348FEF772
S1134800EDFCAFF30080002D07D140F21A320E49BF
S11348101248FEF7E3FCAFF30080002E07D140F20C
S11348201B3209490E48FEF7D9FCAFF3008027007C
S11348303200290003483B7850F8230000F0D0F9F7
S11348400020F2BD106E0000B06A00008471000008
S113485030710000946C0000AC6E00009071000098
S11348609C71000010B4DFF8BC230B005BB213F0A2
S113487001030400E4B26401145914F00104A342D6
S113488018D00B005BB213F001030400E4B264011E
S11348901351BFF34F8FBFF36F8F0300DBB25B0184
S11348A013441B6913F001030C0064B214F00104F7
S11348B0A342F2D110BC704710B5040001212000BE
S11348C0C0B2FFF7CFFF10BD816851F002018160D3
S11348D0816831F002018160704738B50400002519
S11348E00D2D09D2DFF8400350F82500A04201D174
S11348F028000DE06D1CF3E70D2D08D3BF22DFF86F
S11349002C13DFF82C03FEF769FCAFF300802800BA
S113491032BD2DE9F44F84B005000C00002C09D100
S113492040F23712DFF80413DFF80C03FEF756FCED
S1134930AFF300802068002809D14FF49C72DFF89F
S1134940EC12DFF8F802FEF749FCAFF30080207A9E
S1134950042809DB4FF49D72DFF8D012DFF8E0027F
S1134960FEF73CFCAFF30080607A042809DB40F2D8
S11349703B12DFF8B812DFF8CC02FEF72FFCAFF3DE
S1134980008000200290D4F800A05FF0000800200E
S1134990ADF800005FF004094846C0B221283DD2BA
S11349A004990A20414322684846C0B24243B1FBFD
S11349B0F2F0401D0A21B0FBF1F00700380080B28C
S11349C0002802D10120070007E0380080B2B0F5CA
S11349D0005F02D341F6FF70070004994A46D2B241
S11349E0380080B24243B1FBF2F001902068019993
S11349F0884205D2DDF804B02068BBEB000B04E06C
S1134A00D4F800B00198BBEB000BDA4503D3DA46C7
S1134A10C846ADF8007019F10109BDE720686421AA
S1134A20B0FBF1F103204143514503D240F2215040
S1134A3002909BE02800FFF750FF0390DFF8080284
S1134A400399405CFFF738FF2800FFF73DFF2A6910
S1134A504046C0B2042805D34046C0B2082801D25B
S1134A6052F4003232F0F8524046C0B2401E000602
S1134A7010F0F8500243520B5203BDF80000C0047A
S1134A80C00C10432861286930F000502861A869DF
S1134A90DFF8B811014020790143E07B000210F4F3
S1134AA0E0600143A07B800010F0040001436079C2
S1134AB0012808D12079002802D031F4006107E0F0
S1134AC051F4006104E02079002801D051F0100174
S1134AD0A9612A6932F40052E079400310F40050CD
S1134AE010432861607A237A53EA0043EB62A86A90
S1134AF050F08800A862A86A50F44040A862DFF829
S1134B00500150F0004050F440406B6A667B36011F
S1134B1016F010063343267B760116F02006334345
S1134B206B62A37A012B03D1696A51F008016962AF
S1134B30E17A012903D1696A51F001016962A1791D
S1134B40012902D150F0005001E030F000506969B1
S1134B5001436961AE69217C012901D156F4002623
S1134B60607C012801D156F48026AE61029805B01C
S1134B70BDE8F08FF8B50400002C09D140F25B22A7
S1134B80DFF8A810DFF8B000FEF728FBAFF30080D1
S1134B90142500262700320029003800FFF77AFA8E
S1134BA05FF4E1302060002020710020607100205B
S1134BB0A0710020E07100202072002060720020AB
S1134BC0A0720020E0720020607300202073002097
S1134BD0A0730020E0730020207400206074F1BDF5
S1134BE070B505000C001600002C09D140F20B42F0
S1134BF0DFF83810DFF83C00FEF7F0FAAFF300807E
S1134C0022003100002907D068690002FCD5107821
S1134C10E861521C491EF5E768694002FCD5002092
S1134C2070BD00000060CC40786E00008069000018
S1134C30246D0000C0710000CC71000054700000AD
S1134C40086F0000306F000068710000E8F8FFFF93
S1134C5000001F4080B53C4841683D483B4A5268CB
S1134C609047BFF34F8F01BD80B5374881683948FD
S1134C70364A92689047BFF34F8F01BD80B53248E2
S1134C80C1683548314AD2689047BFF34F8F01BDA0
S1134C9080B52D48016931482C4A12699047BFF309
S1134CA04F8F01BD80B5284841692D48274A526974
S1134CB09047BFF34F8F01BD80B5234881692948D0
S1134CC0224A92699047BFF34F8F01BD80B51E48B9
S1134CD0C16925481D4AD2699047BFF34F8F01BD72
S1134CE0000080B51848016A2048184A126A9047A3
S1134CF0BFF34F8F01BD80B51348416A1C48134A66
S1134D00526A9047BFF34F8F01BD80B50E48816A48
S1134D1018480E4A926A9047BFF34F8F01BD80B581
S1134D200948C16A1448094AD26A9047BFF34F8FB1
S1134D3001BD80B50448016B1048044A126B9047CA
S1134D40BFF34F8F01BD0000280000205C0000204D
S1134D5000C00740000008400040084000800840B0
S1134D6000C008400000094000400940008009409C
S1134D7000C0094000000A400040C2400080C24018
S1134D80DFF8182AC0B2802148431058C0F302202B
S1134D907047DFF8082AC0B280214843105800F059
S1134DA0FF00401C704738B505000C00002C09D1E9
S1134DB040F66F02DFF8E819DFF8E809FEF70EFAAB
S1134DC0AFF300802078002802D02178090600E0A3
S1134DD000216078000210F4E060A278521E02F014
S1134DE0FF0210430143DFF8B4292B00DBB280201B
S1134DF04343D150BFF34F8FBFF36F8F31BD70B5B5
S1134E0005002800C0B2FFF7BBFF0600DFF89809D1
S1134E102900C9B200EBC100805DFEF7E7F8040089
S1134E202800C0B2FFF7B5FFB4FBF0F4002C09D1A1
S1134E3040F6C502DFF86819DFF87009FEF7CEF90D
S1134E40AFF30080200070BD0100C9B2002906D074
S1134E50DFF85C190A6852F002020A6005E0DFF824
S1134E6050190A6832F002020A6070470100C9B2A0
S1134E70002906D0DFF838190A6852F080720A60F7
S1134E8005E0DFF82C190A6832F080720A60704776
S1134E900100C9B2002906D0DFF818190A6852F0D7
S1134EA002020A6005E0DFF80C190A6832F0020217
S1134EB00A60704710B40B00DBB2092B09DB83686E
S1134EC09B089B001400E4B214F003041C438460A8
S1134ED028E00B00DBB2072B09DB43689B089B002F
S1134EE01400E4B214F003041C4344601AE00B0001
S1134EF0DBB2042B0BDB036803248C40A3431400B4
S1134F00E4B214F003048C401C4304600AE0036818
S1134F1007248C40A3431400E4B214F007048C402B
S1134F201C43046010BC704730B4C368DFF8884881
S1134F301C400D00EDB2AD0215F48065254313004D
S1134F40DBB21D43C56030BC7047426932F0005289
S1134F504261426861F30C2242608268002AFCD5F7
S1134F6070471CB5032100226C462000FFF792F81D
S1134F70DFF84848200000F04DFCDFF844080068E2
S1134F80DFF8401888420BD1DFF83C08006800F0D5
S1134F90FF000B2804D116212000FFF7D6FF03E001
S1134FA015212000FFF7D1FFDFF820080068C0F3C7
S1134FB00010002806D101220021DFF81408FEF7B2
S1134FC0DBF905E000220021DFF80408FEF7D4F93C
S1134FD0DFF8FC4701212000FEF739F90121200008
S1134FE0FEF785F90220FDF731FFDFF8E8070168D5
S1134FF051F002010160FEF7C1F80020FFF748FFFD
S11350000120FFF721FF0120FFF730FFDFF8C80779
S1135010016851F01401016001684900FCD50020C9
S11350208DF8010001208DF8020069460020FFF789
S1135030BAFE00208DF8010001208DF802006946B7
S11350400820FFF7B0FEDFF89407FDF716FA0121F8
S11350500120FDF765FCFDF7D3FEDFF88407FDF7BB
S113506077FA1B2200210220FDF7FAFA102201210F
S11350700220FDF7F5FA182202210220FDF7F0FACA
S1135080202203210220FDF7EBFAFDF7FFFB0D229E
S113509000210320FDF7E4FA112201210320FDF78A
S11350A0DFFA202202210320FDF7DAFA1622032177
S11350B00320FDF7D5FA01210420FDF731FCFDF7AB
S11350C096FDDFF82007FDF7EFFD04208DF80100C1
S11350D001208DF8020069460020FFF764FE0420D9
S11350E08DF8010002208DF8020069460220FFF7C6
S11350F05AFE05208DF8010003208DF80200694650
S11351000320FFF750FE06208DF8010003208DF8E0
S1135110020069460420FFF746FE00208DF80100D6
S113512001208DF8020069460520FFF73CFE0720A8
S11351308DF8010004208DF8020069460620FFF76F
S113514032FE00208DF80100F0208DF8020069463F
S11351500820FFF728FE00208DF8010001208DF8BB
S1135160020069460920FFF71EFE00208DF80100A9
S113517001208DF8020069460A20FFF714FE002082
S11351808DF8010001208DF8020069460B20FFF71D
S11351900AFE00208DF8010001208DF80200694606
S11351A00C20FFF700FE00208DF8010001208DF88F
S11351B0020069460D20FFF7F6FD00208DF801007E
S11351C001208DF8020069460E20FFF7ECFD002057
S11351D08DF8010001208DF8020069460F20FFF7C9
S11351E0E2FD00208DF8010001208DF802006946DF
S11351F01020FFF7D8FD00208DF8010001208DF864
S1135200020069461120FFF7CEFD00208DF8010051
S113521001208DF8020069461220FFF7C4FD00202A
S11352208DF8010001208DF8020069461320FFF774
S1135230BAFD00208DF8010001208DF802006946B6
S11352401420FFF7B0FD00208DF8010001208DF837
S1135250020069461520FFF7A6FD00208DF8010025
S113526001208DF8020069461620FFF79CFD0020FE
S11352708DF8010001208DF8020069461720FFF720
S113528092FD00208DF8010001208DF8020069468E
S11352901820FFF788FD06208DF8010016208DF8F0
S11352A0020069461920FFF77EFD06208DF80100F3
S11352B016208DF8020069461A20FFF774FD0020BD
S11352C08DF8010001208DF8020069461B20FFF7CC
S11352D06AFD00208DF8010001208DF80200694666
S11352E01C20FFF760FD00208DF8010001208DF8DF
S11352F0020069461D20FFF756FD00208DF80100CD
S113530001208DF8020069461E20FFF74CFD0020A5
S11353108DF8010001208DF8020069461F20FFF777
S113532042FD00208DF8010001208DF8020069463D
S11353302020FFF738FD00208DF8010001208DF8B2
S1135340020069462120FFF72EFD00208DF80100A0
S113535001208DF8020069462220FFF724FD002079
S11353608DF8010001208DF8020069462320FFF723
S11353701AFD00208DF8010001208DF80200694615
S11353802420FFF710FD00208DF8010001208DF886
S1135390020069462520FFF706FD00208DF8010074
S11353A001208DF8020069462620FFF7FCFC00204E
S11353B08DF8010001208DF8020069462720FFF7CF
S11353C0F2FC00208DF8010001208DF802006946EE
S11353D02820FFF7E8FC00208DF8010001208DF85B
S11353E0020069462920FFF7DEFC00208DF8010049
S11353F001208DF8020069462A20FFF7D4FC002022
S11354008DF8010001208DF8020069462B20FFF77A
S1135410CAFC00208DF8010001208DF802006946C5
S11354202C20FFF7C0FC00208DF8010001208DF82E
S1135430020069462D20FFF7B6FC00208DF801001C
S113544001208DF8020069462E20FFF7ACFC0020F5
S11354508DF8010001208DF8020069462F20FFF726
S1135460A2FC00208DF8010001208DF8020069469D
S11354703020FFF798FC00208DF8010001208DF802
S1135480020069463120FFF78EFC00208DF80100F0
S113549001208DF8020069463220FFF784FC0020C9
S11354A08DF8010001208DF8020069463320FFF7D2
S11354B07AFC00208DF8010001208DF80200694675
S11354C03420FFF770FC00208DF8010001208DF8D6
S11354D0020069463520FFF766FC00208DF80100C4
S11354E001208DF8020069463620FFF75CFC00209D
S11354F08DF8010001208DF8020069463720FFF77E
S113550052FC00208DF8010001208DF8020069464C
S11355103820FFF748FC00208DF8010001208DF8A9
S1135520020069463920FFF73EFC00208DF8010097
S113553001208DF8020069463A20FFF734FC002070
S11355408DF8010001208DF8020069463B20FFF729
S11355502AFC00208DF8010001208DF80200694624
S11355603C20FFF720FC00208DF8010001208DF87D
S1135570020069463D20FFF716FC00208DF801006B
S113558001208DF8020069463E20FFF70CFC002044
S11355908DF8010001208DF8020069463F20FFF7D5
S11355A002FC00208DF8010001208DF802006946FC
S11355B04020FFF7F8FB00208DF8010001208DF852
S11355C0020069464120FFF7EEFB00208DF8010040
S11355D001208DF8020069464220FFF7E4FB002019
S11355E08DF8010001208DF8020069464320FFF781
S11355F0DAFB07208DF8010002208DF802006946CD
S11356004420FFF7D0FB00208DF8010001208DF825
S1135610020069464520FFF7C6FB00208DF8010013
S113562001208DF8020069464620FFF7BCFB0020EC
S11356308DF8010001208DF8020069464720FFF72C
S1135640B2FB00208DF8010001208DF802006946AC
S11356504820FFF7A8FB00208DF8010001208DF8F9
S1135660020069464920FFF79EFB00208DF80100E7
S113567001208DF8020069464A20FFF794FB0020C0
S11356808DF8010001208DF8020069464B20FFF7D8
S11356908AFB00208DF8010001208DF80200694684
S11356A04C20FFF780FB00208DF8010001208DF8CD
S11356B0020069464D20FFF776FB00208DF80100BB
S11356C001208DF8020069464E20FFF76CFBDFF8DD
S11356D01841002200212000FFF7ECFB03220321E4
S11356E02000FFF7E7FB002206212000FFF7E2FB82
S11356F0002208212000FFF7DDFB00220A21200000
S1135700FFF7D8FB002200212000FFF70DFCDFF893
S1135710DC00016831F002010160DFF8D4000168A7
S11357204908490051F004010160016831F00201A7
S11357300160DFF8C000016831F002010160016816
S1135740490849000160DFF8B000016849084900D0
S11357500160DFF8A8000168490849000160DFF82A
S1135760A0000168490849000160DFF89800016859
S1135770490849000160DFF89000016849084900C0
S11357800160DFF8880001684908490001600020D1
S1135790FFF735FBDFF87810086013BD0000CC403C
S11357A04C6A0000E8710000705E0000F0710000B7
S11357B01040C8405040C84000FBFFFF0080CA4072
S11357C000C9CA406959AC5710C9CA4070C8CA4018
S11357D00040C840C040C8402040C840F8710000A4
S11357E0787100001C71000000400E4010400E4013
S11357F014400E4018400E4058400E405C400E408D
S113580060400E4064400E4068400E406C400E40C4
S11358100000002082680D490A408260C16831F0AE
S11358201001C160C16851F00801C160016931F41F
S1135830606151F420610161416931F4C011416139
S1135840416951F48021416170470000FEFFFFFB74
S1135850BFF35F8F50F00101BF4A1160BF490A686E
S113586052F480320A60BFF34F8FBFF36F8F7047DB
S1135870BFF35F8FB948016831F480310160B648E5
S11358800168490849000160BFF34F8FBFF36F8F70
S11358907047B34AC0B2802148431058C0F3022075
S11358A07047AF4AC0B280214843105800F0FF004F
S11358B0401C704770B505002800C0B2FFF7E9FF2F
S11358C00600A8482900C9B200EBC100805DFDF7BD
S11358D08DFB04002800C0B2FFF7E3FFB4FBF0F433
S11358E0002C07D140F6C5029F49A048FDF776FC7D
S11358F0AFF30080200070BD80B51920FFF7DAFFF8
S113590002BD10B5FFF7F8FF0400230001225FF485
S1135910E1310120FEF7C4F810BD2DE9FF41944C9C
S1135920944D00200090944E306880030ED5BFF350
S11359304F8FBFF36F8F306830F400303060002039
S11359408E490860BFF34F8FBFF36F8F3068C00379
S113595038D500208A490860BFF34F8F306830F48F
S113596080303060BFF34F8F864802A9016001A9DF
S1135970016003A90160BFF34F8FBFF36F8F8248AB
S1135980006803900398C0F34E3002900398C0F36C
S1135990C9000190029843F6E07111EA40110198A0
S11359A051EA8071794801600198411E01910028F3
S11359B0F0D10298411E02910028E7D1BFF34F8F26
S11359C0BFF36F8FFFF754FF714F10203860DFF87B
S11359D0C4817148C8F80000704838607048C8F83D
S11359E0000070493960C8F80000132038606E4820
S11359F0C8F80000142038606C48C8F800006C49EE
S1135A003960C8F800006B4838606B48C8F800007B
S1135A106A4838606A48C8F8000000982900C14004
S1135A20022903D30098401C0090F6E70098002850
S1135A3035D0B4FBF5F005FB1040002807D04FF437
S1135A40D37260496048FDF7C9FBAFF300800121C0
S1135A50009881408D4207D040F2A71259495B4813
S1135A60FDF7BCFBAFF300800098052807D24FF484
S1135A70D47254495648FDF7B1FBAFF300801A20A5
S1135A80210060F3040139600098401E400010F0CA
S1135A903E0040F0427050F00100C8F800004D484C
S1135AA038604D48C8F800004C4838604C48C8F885
S1135AB000004C4939604C49C8F800104B4A3A6020
S1135AC0C8F800004A483860C8F800100620FFF7FC
S1135AD0BFFE3068C00326D4002029490860BFF304
S1135AE04F8F29480168C1F34E32C1F3C900030046
S1135AF043F6E07010EA421050EA83703D4E306085
S1135B001800431E0028F3D11000421E0028ECD1D7
S1135B10BFF34F8F184E306850F480303060BFF3BD
S1135B204F8FBFF36F8F3068800312D4BFF34F8F52
S1135B30BFF36F8F002011490860BFF34F8FBFF38D
S1135B406F8F306850F400303060BFF34F8FBFF375
S1135B506F8FBDE8FF81000094ED00E024ED00E0CC
S1135B600000CC40F85B0000E8690000D871000038
S1135B7000002C200000000014ED00E050EF00E0D5
S1135B8084ED00E070EF00E080ED00E074EF00E0F1
S1135B909CED00E0A0ED00E03F000010110000804B
S1135BA039001003120000603B00100323000303BC
S1135BB015000020160020202700030317003020C2
S1135BC025000303A06800008C70000038700000FA
S1135BD0E07100001B0000402F0010031C00004176
S1135BE0290010031D004041270010031E008041BE
S1135BF01F00004260EF00E00205030007160F1CBF
S1135C0002050300140F0918020503000F18090DFB
S1135C1002050300140F09180205030018090B11EB
S1135C20020503001018090D0205030010180B09E2
S1135C3002050300140F0A18020503000910180ACC
S1135C40020503001018090D020503001018090DC0
S1135C50020503000F181A0D020503001018090DA0
S1135C60020503001018090D02050300101813148F
S1135C700205030010181A1C0205030010181A1C50
S1135C80020503001018131402050300101813145E
S1135C9002050300101813140205030011090C0F68
S1135CA00205030011090C0F020503001018090D69
S1135CB0020503001018090D02050300140F0D1846
S1135CC0020503001018090D020503001018090D40
S1135CD0020503001018090D020503001018090D30
S1135CE0020503001018090D020503001018090D20
S1135CF0020503001018090D020503001018090D10
S1135D00020503001018090D020503001018090DFF
S1135D1002050300140F0D1802050300140F0D18DB
S1135D20020503001018090D020503001018090DDF
S1135D30020503001018090D020503001018090DCF
S1135D4002050300140F0D1802050300140F0D18AB
S1135D50020503001318090D020503001318090DA9
S1135D60020503001318090D020503001318090D99
S1135D7002050300140F131802050300140F13186F
S1135D80020503001018090D020503001018090D7F
S1135D9002050300171A180B02050300171A180B43
S1135DA002050300171A180B02050300171A180B33
S1135DB002050300171A180B02050300171A180B23
S1135DC002050300171A180B020503000C0A180732
S1135DD0020503000C0A18070205030018101A0D27
S1135DE00205030018101A0D02050300140F1A18F7
S1135DF0020503001A0F130D020503001A13180DF0
S1135E00020503001A13180D020503001A13180DD6
S1135E1002050300140F1A1802050300090B0F1CD6
S1135E2002050300090C111C02050300090C111CD6
S1135E3002050300090A111C02050300090A111CCA
S1135E40020503000C0F0A1C020503000C0F0A1CB8
S1135E50020503000C0F0A1C020503000C0F121CA0
S1135E60020503000C091218020503000D01121AA1
S1135E700205030007160F1C02050300140F09187E
S1135E80020503000F18090D02050300140F091879
S1135E900205030018090B11020503001018090D6F
S1135EA00205030010180B0902050300140F0A1859
S1135EB0020503000910180A020503001018090D51
S1135EC0020503001018090D020503000F181A0D2E
S1135ED0020503001018090D020503001018090D2E
S1135EE002050300101813140205030010181A1CED
S1135EF00205030010181A1C0205030010181314DD
S1135F0002050300101813140205030010181314DB
S1135F100205030011090C0F0205030011090C0FFF
S1135F20020503001018090D020503001018090DDD
S1135F3002050300140F0D18020503001018090DC3
S1135F40020503001018090D020503001018090DBD
S1135F50020503001018090D020503001018090DAD
S1135F60020503001018090D020503001018090D9D
S1135F70020503001018090D020503001018090D8D
S1135F80020503001018090D02050300140F0D1873
S1135F9002050300140F0D18020503001018090D63
S1135FA0020503001018090D020503001018090D5D
S1135FB0020503001018090D02050300140F0D1843
S1135FC002050300140F0D18020503001318090D30
S1135FD0020503001318090D020503001318090D27
S1135FE0020503001318090D02050300140F13180A
S1135FF002050300140F1318020503001018090DFD
S1136000020503001018090D02050300171A180BE6
S113601002050300171A180B02050300171A180BC0
S113602002050300171A180B02050300171A180BB0
S113603002050300171A180B02050300171A180BA0
S1136040020503000C0A1807020503000C0A1807CE
S11360500205030018101A0D0205030018101A0D8A
S113606002050300140F1A18020503001A0F130D7A
S1136070020503001A13180D020503001A13180D64
S1136080020503001A13180D02050300140F1A1851
S113609002050300090B0F1C02050300090C111C67
S11360A002050300090C111C02050300090A111C56
S11360B002050300090A111C020503000C0F0A1C47
S11360C0020503000C0F0A1C020503000C0F0A1C36
S11360D0020503000C0F121C020503000C09121820
S11360E0020503000D01121A0205030007160F1C16
S11360F002050300140F0918020503000F18090D07
S113610002050300140F09180205030018090B11F6
S1136110020503001018090D0205030010180B09ED
S113612002050300140F0A18020503000910180AD7
S1136130020503001018090D020503001018090DCB
S1136140020503000F181A0D020503001018090DAB
S1136150020503001018090D02050300101813149A
S11361600205030010181A1C0205030010181A1C5B
S11361700205030010181314020503001018131469
S113618002050300101813140205030011090C0F73
S11361900205030011090C0F020503001018090D74
S11361A0020503001018090D02050300140F0D1851
S11361B0020503001018090D020503001018090D4B
S11361C0020503001018090D020503001018090D3B
S11361D0020503001018090D020503001018090D2B
S11361E0020503001018090D020503001018090D1B
S11361F0020503001018090D020503001018090D0B
S113620002050300140F0D1802050300140F0D18E6
S1136210020503001018090D020503001018090DEA
S1136220020503001018090D020503001018090DDA
S113623002050300140F0D1802050300140F0D18B6
S1136240020503001318090D020503001318090DB4
S1136250020503001318090D020503001318090DA4
S113626002050300140F131802050300140F13187A
S1136270020503001018090D020503001018090D8A
S113628002050300171A180B02050300171A180B4E
S113629002050300171A180B02050300171A180B3E
S11362A002050300171A180B02050300171A180B2E
S11362B002050300171A180B020503000C0A18073D
S11362C0020503000C0A18070205030018101A0D32
S11362D00205030018101A0D02050300140F1A1802
S11362E0020503001A0F130D020503001A13180DFB
S11362F0020503001A13180D020503001A13180DE2
S113630002050300140F1A1802050300090B0F1CE1
S113631002050300090C111C02050300090C111CE1
S113632002050300090A111C02050300090A111CD5
S1136330020503000C0F0A1C020503000C0F0A1CC3
S1136340020503000C0F0A1C020503000C0F121CAB
S1136350020503000C091218020503000D01121AAC
S113636010B4524A0B005BB213F001030400E4B210
S11363706401145914F00104A34218D00B005BB259
S113638013F001030400E4B264011351BFF34F8F0F
S1136390BFF36F8F0300DBB25B0113441B6913F07F
S11363A001030C0064B214F00104A342F2D110BC46
S11363B0704710B5040001212000C0B2FFF7D0FFE0
S11363C010BD70B504000D0016003200D2B22900D1
S11363D0200000F077F870BD38B504000025102DBA
S11363E006D2334850F82500A04201D06D1CF6E7D0
S11363F0102D06D33C222F492F48FCF7EFFEAFF3B4
S11364000080280032BD2DE9F04104000D00160083
S11364102000FFF7E1FF07000E2F06D22748C15DD9
S11364208A2902D0C05DFFF7C4FF5FF001086169EB
S113643018FA05F0814361613078002807D160685B
S113644018FA05F830EA0808C4F804800BE07278FA
S11364502900200000F00EF8606818FA05F858EAE0
S11364600008C4F80480B27829002000FFF7A9FFCF
S1136470BDE8F08170B504000D001600202D06D390
S113648075220C490E48FCF7A9FEAFF300803000DA
S1136490C0B2002804D10120A840C4F8880003E059
S11364A00120A840C4F8840070BD00000060CC4006
S11364B0E46C0000DC6B0000646D000058710000A7
S11364C0B4710000F0B40C000126C56916FA01F39A
S11364D09D43C561102902D210F10C0502E010F1B0
S11364E01005103C1300DBB2012B07D03DD3032B66
S11364F01ED00CD3052B33D029D336E02E680327C6
S11365002300DBB25B009F40BE432E602DE02F686A
S11365105FF0030C2300DBB25B001CFA03FC37EAD8
S11365200C072300DBB25B009E403E432E601CE060
S11365302E6803272300DBB25B009F40BE43022783
S11365402300DBB25B009F403E432E600DE02E68CB
S113655003272300DBB25B009F403E432E6004E030
S1136560C3698E401E43C661FFE7F0BC7047FEE777
S113657080B53C48016851F4700101603A490888CB
S1136580400704D50A884FF6FB7002400A80374959
S11365900888400704D50A884FF6FB7002400A8039
S11365A033490868800403D53248334A106006E052
S11365B031484CF2205202604DF6281202604FF628
S11365C0FF702E4A10600A6832F0800252F02002F6
S11365D00A602B490A68920403D5264A294B1A609B
S11365E006E0284A4CF2205313604DF6281313603A
S11365F0254A1060086830F0800050F020000860E0
S113660022480168C90703D50168490849000160A7
S11366101F480168890315D40168890312D4BFF3A4
S11366204F8FBFF36F8F00211A4A1160BFF34F8F52
S1136630BFF36F8F016851F400310160BFF34F8FD6
S1136640BFF36F8F14490A6832F400520A6001687C
S113665051F010010160BFF34F8FBFF36F8F00F053
S11366601EF801BD88ED00E0000003400040034037
S11366700080034020C528D90480034008800340DB
S11366800000C1400400C1400800C14010E000E027
S113669014ED00E050EF00E070400E40704770478A
S11366A010B43A4A0B005BB213F001030400E4B2E5
S11366B06401145914F00104A34218D00B005BB216
S11366C013F001030400E4B264011351BFF34F8FCC
S11366D0BFF36F8F0300DBB25B0113441B6913F03C
S11366E001030C0064B214F00104A342F2D110BC03
S11366F0704710B5040001212000C0B2FFF7D0FF9D
S113670010BD70B4049C11F00F05260116F010069C
S113671035430560002A00D0136070BC704730B464
S1136720029C039D002C00D0256030BC70473EB510
S11367303120FFF7DEFF3220FFF7DBFF144800684B
S1136740029002AA1E211348FFF75DFE002001906B
S113675011480090002300220A211048FFF7D1FFBE
S11367600F4C104D002001900095002300220721BA
S11367702000FFF7C6FF02200190009500230022AD
S113678007212000FFF7CBFF37BD00000060CC409D
S11367908874000000C0C540CC820E4088800E4042
S11367A02C80C0406C80C04010B4020012B2002A99
S11367B005D40A01314B040024B21A5508E00A0139
S11367C02F4B040024B214F00F04234403F8042CC8
S11367D010BC704710B50400601EB0F1807F01D377
S11367E001200EE0601E274908600F215FF0FF3092
S11367F0FFF7DAFF002024490860072023490860D6
S1136800002010BD22490868002802D00868401EF4
S1136810086070471E4A106011680029FCD1704757
S113682010B5FFF77AF8FFF782FFFEF79AFBFFF740
S113683068F8FFF733FF174800684FF47A71B0FB2C
S1136840F1F0FFF7C7FF002800D0FEE7C820FFF7EC
S1136850E1FF114C2078002807D000221E210F48A8
S1136860FFF708FE00202070F0E701221E210B48EC
S1136870FFF700FE01202070E8E7000000E400E0DC
S113688018ED00E014E000E018E000E010E000E0A3
S113689090000020000000209500002000C0C540AA
S11368A0433A5C576F726B73706163655C726573B6
S11368B05F636869705F7274346469676974735C78
S11368C053444B5F325F31355F3030305F4D494D5B
S11368D0585254313137302D45564B425C626F610A
S11368E07264735C65766B626D696D787274313154
S11368F037305C64656D6F5F617070735C6C656488
S11369005F626C696E6B795C636D375C626F617238
S1136910642E6300433A5C576F726B7370616365F6
S11369205C7265735F636869705F7274346469670D
S11369306974735C53444B5F325F31355F30303080
S11369405F4D494D585254313137302D45564B42E5
S11369505C646576696365735C4D494D5852543186
S11369603137365C647269766572735C66736C5F2A
S1136970636F6D6D6F6E5F61726D2E63000000005A
S1136980433A5C576F726B73706163655C726573D5
S11369905F636869705F7274346469676974735C97
S11369A053444B5F325F31355F3030305F4D494D7A
S11369B0585254313137302D45564B425C6465761C
S11369C0696365735C4D494D585254313137365CB7
S11369D0647269766572735C66736C5F6C70756102
S11369E072742E6300000000433A5C576F726B733D
S11369F0706163655C7265735F636869705F72740C
S1136A00346469676974735C53444B5F325F313536
S1136A105F3030305F4D494D585254313137302D4D
S1136A2045564B425C646576696365735C4D494DBC
S1136A30585254313137365C647269766572735CCE
S1136A4066736C5F636C6F636B2E6800433A5C57CC
S1136A506F726B73706163655C7265735F636869A1
S1136A60705F7274346469676974735C53444B5F18
S1136A70325F31355F3030305F4D494D58525431BB
S1136A803137302D45564B425C64657669636573D6
S1136A905C4D494D585254313137365C64726976D5
S1136AA06572735C66736C5F636C6F636B2E6800F6
S1136AB0433A5C576F726B73706163655C726573A4
S1136AC05F636869705F7274346469676974735C66
S1136AD053444B5F325F31355F3030305F4D494D49
S1136AE0585254313137302D45564B425C636F6DEB
S1136AF0706F6E656E74735C756172745C66736CD2
S1136B005F616461707465725F6C70756172742E1C
S1136B1063000000433A5C576F726B737061636586
S1136B205C7265735F636869705F7274346469670B
S1136B306974735C53444B5F325F31355F3030307E
S1136B405F4D494D585254313137302D45564B42E3
S1136B505C646576696365735C4D494D5852543184
S1136B603137365C647269766572735C66736C5F28
S1136B70636C6F636B2E6800433A5C576F726B7380
S1136B80706163655C7265735F636869705F72747A
S1136B90346469676974735C53444B5F325F3135A5
S1136BA05F3030305F4D494D585254313137302DBC
S1136BB045564B425C646576696365735C4D494D2B
S1136BC0585254313137365C647269766572735C3D
S1136BD066736C5F636C6F636B2E6300433A5C5740
S1136BE06F726B73706163655C7265735F63686910
S1136BF0705F7274346469676974735C53444B5F87
S1136C00325F31355F3030305F4D494D5852543129
S1136C103137302D45564B425C6465766963657344
S1136C205C4D494D585254313137365C6472697643
S1136C306572735C66736C5F6770696F2E630000C6
S1136C4028636F6E6669672D3E6C6F6F704469765A
S1136C5069646572203C3D202875696E7433325F27
S1136C607429323038292026262028636F6E6669FD
S1136C70672D3E6C6F6F7044697669646572203E5F
S1136C803D202875696E7433325F7429313034299C
S1136C9000000000756172745F636F6E6669672D32
S1136CA03E696E7374616E6365203C202873697A53
S1136CB0656F6628735F4C707561727441646170AE
S1136CC07465724261736529202F2073697A656F38
S1136CD066284C50554152545F54797065202A29D6
S1136CE0290000000000000000C012400000134012
S1136CF0004013400080134000C0134000001440C3
S1136D0000C0C5400000C6400040C6400080C640E8
S1136D1000C0C6400000C7400000CA4000800042D6
S1136D2000C00042696E7374616E6365203C202864
S1136D3073697A656F6628735F6C707561727442EB
S1136D406173657329202F2073697A656F6628281B
S1136D50735F6C70756172744261736573295B3023
S1136D605D292900696E7374616E6365203C202877
S1136D7073697A656F6628735F6770696F426173C0
S1136D80657329202F2073697A656F662828735FDD
S1136D906770696F4261736573295B305D292900EF
S1136DA028706C6C203D3D206B434C4F434B5F502F
S1136DB06C6C417564696F29207C7C2028706C6C34
S1136DC0203D3D206B434C4F434B5F506C6C5669E8
S1136DD064656F290000000030B4002512E050F80B
S1136DE0042BD30744BF4A44521E091F042942F806
S1136DF0045BFAD213468C0744BF15809B1CC90759
S1136E0048BF1D7050F8041B0029E8D130BC7047FE
S1136E100000000000C00740000008400040084097
S1136E200080084000C008400000094000400940BC
S1136E300080094000C0094000000A400040C240F0
S1136E400080C24028706C6C203D3D206B434C4F49
S1136E50434B5F506C6C5379733229207C7C20281F
S1136E60706C6C203D3D206B434C4F434B5F506C2A
S1136E706C537973332900000000000000C0074000
S1136E8000000840004008400080084000C008405E
S1136E9000000940004009400080094000C009404A
S1136EA000000A400040C2400080C2403020213D22
S1136EB020735F4C707561727441646170746572A3
S1136EC0426173655B756172745F636F6E66696757
S1136ED02D3E696E7374616E63655D004153534565
S1136EE05254204552524F52202220257320223AD8
S1136EF02066696C652022257322204C696E65200A
S1136F0022256422200A00002875696E74385F7493
S1136F1029283429203E20636F6E6669672D3E74EC
S1136F20784669666F57617465726D61726B0000B3
S1136F302875696E74385F7429283429203E2063CB
S1136F406F6E6669672D3E72784669666F57617425
S1136F5065726D61726B000072B605480549016087
S1136F600A6882F308880448804762B603480047E9
S1136F7008ED00E000200000716500007170000061
S1136F8010B5074979441831064C7C44163404E0A2
S1136F900A68081D114488470146A142F8D110BD72
S1136FA02C0000004C0000004EF68851CEF2000187
S1136FB0086840F470000860BFF34F8FBFF36F8F11
S1136FC04FF00170E1EE100A704700000DFEFFFF64
S1136FD09400000004000020000000004FCCFFFFDC
S1136FE004000000AC0400000000002000000000C9
S1136FF000F00DF8002801D0FFF7C2FFAFF30080C6
S11370000020AFF30080FFF70BFC00F002F8012032
S1137010704700F001B800000746384600F002F857
S1137020FBE7000080B5AFF30080024A110018208E
S1137030ABBEFBE72600020073697A65203D3D2064
S11370402875696E7433325F74292831203C3C20E2
S1137050692900003055203C20636F6E6669672DF6
S11370603E62617564526174655F42707300000032
S11370700548014603B4684680F30988AFF30080ED
S1137080FFF792FFFFF7B4FFA5EDF5FE21286E6F21
S11370906E4361636865537461727420252073695B
S11370A07A65290066726163203C3D202875696E0B
S11370B074385F74293335550000000066726163CB
S11370C0203E3D202875696E74385F74293132552D
S11370D00000000066726163203E3D202875696EE1
S11370E07433325F74293132550000006672616373
S11370F0203C3D202875696E7433325F7429333522
S113710055000000636F756E74203C3D2030786636
S11371106666666666666655000000002900000023
S11371200100000000A60E000000000000000000A6
S11371303020213D20756172745F636F6E666967EC
S11371400000000000000000000000000000010139
S113715000000000000000008A333333333333333C
S113716033333333333300008A565758595A5B5CF0
S11371705D5E5F6061000000FFFFFF0F0000000024
S1137180000000003020213D2068616E646C6500C1
S11371903020213D20646174610000006C656E67DD
S11371A07468203E203055006672657120213D20B0
S11371B030554C0070696E203C203332550000007D
S11371C03020213D20646174610000003020213DA5
S11371D020636F6E66696700667265710000000067
S11371E069203E3D20350000636F6E6669670000CC
S11371F0667265710000000000000000A600000037
S11372006672657100000000004800478D7400003C
S1137210004800478D740000004800478D7400004A
S1137220004800478D740000004800478D7400003A
S1137230004800478D740000004800478D7400002A
S1137240004800478D740000004800478D7400001A
S1137250004800478D740000004800478D7400000A
S1137260004800478D740000004800478D740000FA
S1137270004800478D740000004800478D740000EA
S1137280004800478D740000004800478D740000DA
S113729000480047554C000000480047694C000076
S11372A0004800477D4C000000480047914C000016
S11372B000480047A54C000000480047B94C0000B6
S11372C000480047CD4C000000480047E34C000054
S11372D000480047F74C0000004800470B4D0000F1
S11372E0004800471F4D000000480047334D000090
S11372F0004800478D740000004800478D7400006A
S1137300004800478D740000004800478D74000059
S1137310004800478D740000004800478D74000049
S1137320004800478D740000004800478D74000039
S1137330004800478D740000004800478D74000029
S1137340004800478D740000004800478D74000019
S1137350004800478D740000004800478D74000009
S1137360004800478D740000004800478D740000F9
S1137370004800478D740000004800478D740000E9
S1137380004800478D740000004800478D740000D9
S1137390004800478D740000004800478D740000C9
S11373A0004800478D740000004800478D740000B9
S11373B0004800478D740000004800478D740000A9
S11373C0004800478D740000004800478D74000099
S11373D0004800478D740000004800478D74000089
S11373E0004800478D740000004800478D74000079
S11373F0004800478D740000004800478D74000069
S1137400004800478D740000004800478D74000058
S1137410004800478D740000004800478D74000048
S1137420004800478D740000004800478D74000038
S1137430004800478D740000004800478D74000028
S1137440004800478D740000004800478D74000018
S1137450004800478D740000004800478D74000008
S1137460004800478D740000004800478D740000F8
S1137470004800478D740000004800478D740000E8
S1137480004800478D74000001000000FFF7FEBFB4
S107749000A4781FB9
S9036F5934
